:100000000C9479010C94A1010C94A1010C94A4040A
:100010000C94A4040C94A4040C94A1010C94A101CC
:100020000C94A1010C94A1010C94A1010C94A101C8
:100030000C94A1010C94A1010C94A1010C94A101B8
:100040000C944E040C94A1010C94A1010C94A101F8
:100050000C94A1010C94A1010C94A1010C94A10198
:100060000C94A1010C94A101EF0FF40F3B1082102E
:1000700018114E119911BC11D811D21100000000B5
:10008000240027002A0000000000250028002B0083
:100090005700506F776572005600566F6C74616739
:1000A00065006D4168004361706163697479004166
:1000B0000043757272656E740052435420416D7036
:1000C0000020416D7053656E736F722076312E3053
:1000D0000020524354204A65746920546F6F6C733A
:1000E000000000000023002600290004040404048A
:1000F00004040402020202020203030303030301D5
:1001000002040810204080010204081020010204AB
:10011000081020000000080002010000030407008E
:100120000000000000000020416D7053656E736F89
:10013000722076312E300020524354204A65746973
:1001400020546F6F6C7300527374205570446E208E
:1001500053617665203E005265736574206F72208E
:1001600053617665004368616E676520446E204E7A
:10017000657874203E00596573004E6F00446967CE
:100180002E52657365743A200043616C6962726136
:1001900074696F6E3A2000410043757272656E7427
:1001A0003A200020204D61782E2032532F527820A3
:1001B0003130560020204D61782E203353203135C8
:1001C000560020204D61782E2036532033305600C3
:1001D00020204D61782E2031345320363056005384
:1001E0006574204D61782E20566F6C7461676500D0
:1001F00020204143533735382D32303055002020F0
:100200004143533735382D31353055002020414397
:10021000533735382D313030550020204143533786
:1002200035382D3530550020204143533735382D92
:10023000323030420020204143533735382D31359C
:1002400030420020204143533735382D3130304281
:100250000020204143533735382D353042002020CF
:100260004143533731322D3330002020414353373F
:1002700031322D32300020204143533731322D307E
:1002800035002053656E736F72204E6F7420536576
:1002900074005365742053656E736F7220547970C7
:1002A000653A005700506F7765723A20202000565B
:1002B00000566F6C746167653A20006D41680043B9
:1002C00061703A200041004375723A200020416D70
:1002D0007053656E736F722076312E30002052435A
:1002E00054204A65746920546F6F6C730000521378
:1002F000A00B11241FBECFEFD8E0DEBFCDBF11E0B1
:10030000A0E0B1E0ECEDFCE202C005900D92A03758
:10031000B107D9F722E0A0E7B1E001C01D92AB3AE6
:10032000B207E1F711E0C8E7D1E004C02197FE0170
:100330000E943716C737D107C9F70E94AA0B0C9441
:1003400061160C940000CF92DF92EF92FF920F9310
:100350001F93CF93DF936C017A018B01C0E0D0E053
:10036000CE15DF0589F0D8016D918D01D601ED9193
:10037000FC910190F081E02DC6010995892B11F4C3
:100380007E0102C02196ECCFC701DF91CF911F9172
:100390000F91FF90EF90DF90CF900895833081F020
:1003A00028F4813099F08230A1F008958730A9F0C7
:1003B0008830B9F08430D1F4809180008F7D03C003
:1003C000809180008F7780938000089584B58F7727
:1003D00002C084B58F7D84BD08958091B0008F7771
:1003E00003C08091B0008F7D8093B00008958E305F
:1003F00008F08E508770806480937C0080917A0032
:10040000806480937A0080917A0086FDFCCF809191
:1004100078002091790090E0922B08953FB7F894EE
:100420008091870190918801A0918901B0918A0102
:1004300026B5A89B05C02F3F19F00196A11DB11D3F
:100440003FBFBA2FA92F982F8827820F911DA11D7A
:10045000B11DBC01CD0142E0660F771F881F991FB7
:100460004A95D1F708958F929F92AF92BF92CF9203
:10047000DF92EF92FF920E940E024B015C0188EC2A
:10048000C82ED12CE12CF12C0E940E02DC01CB01F4
:1004900088199909AA09BB09883E9340A105B105AD
:1004A00058F021E0C21AD108E108F10888EE880E60
:1004B00083E0981EA11CB11CC114D104E104F10415
:1004C00019F7FF90EF90DF90CF90BF90AF909F9083
:1004D0008F9008950895DC015196ED91FC9152970B
:1004E000908150968C9180958923808308952091E6
:1004F000D1013091D2012817390771F49091CF01C1
:100500008091D001981741F0E091CF01F0E0EE58D2
:10051000FE4F808190E008958FEF9FEF089508953A
:100520002091D1013091D2012817390769F48091C7
:10053000D0012091CF0190E04096821B910960E1AB
:1005400070E00E942316089580E090E008952091C5
:10055000D1013091D20128173907B9F49091CF0118
:100560008091D001981789F0E091CF01F0E0EE582A
:10057000FE4F80812091CF0130E02F5F3F4F2F70E1
:1005800033272093CF0190E008958FEF9FEF0895D8
:10059000089580E090E008950F931F93CF93DF9329
:1005A0008C01EB010E949113A2E8B2E090E020E2FE
:1005B000981740F4A8014F5F5F4FF80104910C9326
:1005C0008A0101C02C939F5F1196903189F7CE016B
:1005D0000E949113A2E9B2E090E020E2981740F463
:1005E000AE014F5F5F4FFE01C491CC93EA0101C0A1
:1005F0002C939F5F1196903189F7DF91CF911F91D6
:100600000F910895CF93DF93FC0101900020E9F74B
:100610003197E81B20E030E0F0E2A90148575F4F36
:100620002E1748F4EA01C650DE4FDC01A20FB31FBB
:10063000AC91A88304C0DA01A650BE4FFC932F5F93
:100640003F4F2031310549F7FB0101900020E9F7C8
:100650003197E61B80E090E040E29C0128563F4F36
:100660008E1748F4E901C650DE4FDB01A80FB91F11
:100670005C91588304C0D901A650BE4F4C9301969B
:100680008031910551F7DF91CF9108950E94511665
:10069000CF92DF92EF92FF920F931F93CF93DF934E
:1006A000EC0189A19AA1009729F421E030E03B8375
:1006B0002A8371C00FB7F8948F8D98A1892B91F080
:1006C00028E030E090E081E0482F462309F09F5F6A
:1006D000880F21503109C1F7888D81119F5F192F33
:1006E000109501C010E0F62ECE010E946B0289A188
:1006F0009AA10197F1F788E0C82ED12CEE24E3945B
:100700008E2D8F2139F0E989FA8990818889892B8A
:10071000808303C0CE010E946B0289A19AA1019738
:10072000F1F7EE0C81E0C81AD10851F78E898823C1
:1007300089F0888D882339F0E989FA899081888940
:10074000892B808303C0CE010E946B0289A19AA1EC
:100750000197F1F78F8D98A1892B81F010FF07C0C9
:10076000E989FA8990818889892B808303C0CE0129
:100770000E946B028F8D98A10197F1F7E989FA89A0
:1007800090818889892B80830FBF8D8D9E8D0197E5
:10079000F1F781E090E0DF91CF911F910F91FF90F1
:1007A000EF90DF90CF9008950C94D7131F93CF93C1
:1007B000DF93282F30E0F901ED5EFE4F8491F901BF
:1007C000E150FF4FD491F901E551FF4FC491CC2383
:1007D000C9F0162F81110E94CE01EC2FF0E0EE0F30
:1007E000FF1FEA57FF4FA591B4918FB7F8941111ED
:1007F00005C09C91ED2FE095E92302C0EC91ED2B13
:10080000EC938FBFDF91CF911F910895CF93DF932A
:1008100090E0FC01E150FF4F2491FC01E551FF4FB6
:100820008491882361F190E0880F991FFC01E458BE
:10083000FF4FC591D491FC01EA57FF4FA591B491A8
:10084000611109C09FB7F89488812095822388831D
:10085000EC912E230BC0623061F49FB7F89438817D
:10086000822F809583238883EC912E2B2C939FBF1E
:1008700006C08FB7F894E8812E2B28838FBFDF91B5
:10088000CF9108952FB7F8946091830170918401FE
:1008900080918501909186012FBF08951F920F923C
:1008A0000FB60F9211242F933F938F939F93AF9383
:1008B000BF938091830190918401A0918501B091B3
:1008C00086013091820123E0230F2D3720F4019619
:1008D000A11DB11D05C026E8230F0296A11DB11D63
:1008E000209382018093830190938401A0938501DA
:1008F000B09386018091870190918801A091890130
:10090000B0918A010196A11DB11D8093870190933A
:100910008801A0938901B0938A01BF91AF919F9103
:100920008F913F912F910F900FBE0F901F901895B0
:10093000862798E027E087FF03C0880F822701C041
:10094000880F9150C1F708951F920F920FB60F9222
:1009500011242F933F934F935F936F937F938F93C4
:100960009F93AF93BF93CF93DF93EF93FF93E09168
:10097000D101F091D201309709F467C0C685D785BF
:1009800088812585822309F060C0818D928D019731
:10099000F1F7438D548D68E070E030E081E0DA01DA
:1009A0001197F1F79881922311F0382B03C0982FFB
:1009B00090953923880F6150710989F78091D00192
:1009C00090E001968F7099276091CF01681749F0E8
:1009D000A091D001B0E0AE58BE4F3C938093D001BF
:1009E00003C087898160878B86898823F1F0CA01DB
:1009F0000197F1F78881282381E090E0A0E0B0E042
:100A000004C0880F991FAA1FBB1F2A95D2F74091D7
:100A100070015091710160E070E0842B952BA62B42
:100A2000B72B9093710180937001878D90A10097EF
:100A300011F00197F1F7858D968D0197F1F7A38954
:100A4000B4899C918589892B8C93FF91EF91DF91DB
:100A5000CF91BF91AF919F918F917F916F915F9156
:100A60004F913F912F910F900FBE0F901F901895AF
:100A7000E091D101F091D201E817F90769F4A38957
:100A8000B4899C918589809589238C931092D20199
:100A90001092D10181E0089580E008950F931F9393
:100AA000CF93C82F07ED11E0F801608F682FC801C0
:100AB0000E944803F801108E8C2FCF911F910F9147
:100AC00008950F931F93CF93DF931F92CDB7DEB797
:100AD0008C01FC0160818AE090E069830E94CF1361
:100AE0006981681721F08AE090E00E94D713F8012D
:100AF00061818BE090E069830E94CF136981681760
:100B000021F08BE090E00E94D713C8010F90DF9195
:100B1000CF911F910F910895EF92FF920F931F9322
:100B2000CF93DF931F92CDB7DEB703ED11E08AE0DC
:100B3000E82EF12CF80161918F01C70169830E94B1
:100B4000CF136981681719F0C7010E94D713FFEF0F
:100B5000EF1AFF0A8EE0E816F10461F783ED91E0E9
:100B60000F90DF91CF911F910F91FF90EF9008951B
:100B70002F923F924F925F926F927F928F929F92AD
:100B8000AF92BF92CF92DF92EF92FF920F931F939B
:100B9000CF93DF93CDB7DEB72A970FB6F894DEBFB9
:100BA0000FBECDBF8C012A013B013A87298720E087
:100BB00030E0A901C301B2010E94521487FF05C0B1
:100BC00060E070E080E09FEB04C060E070E080E0F7
:100BD0009FE3E12CF12CA985BA85EA16FB0654F4B3
:100BE00020E030E040E251E40E9457142FEFE21A77
:100BF000F20AF1CF9B01AC01C301B2010E94E613DE
:100C00006B017C0120E030E0A901C301B2010E9428
:100C1000521487FF04C0F7FAF094F7F8F094A12C6F
:100C2000B12CBDECB983ECECEA83FCECFB832DE347
:100C30002C8320E030E040E251E469817A818B81AD
:100C40009C810E94B615962E872E382E292EA7013C
:100C500096010E945214181644F03FEFA31AB30AEB
:100C600099828A823B822C82E4CFA114B10429F0BC
:100C700045016FEF861A960A03C092E0892E912CE7
:100C800020E030E0A901C301B2010E94521487FFA5
:100C900003C07FEF871A970A89859A850196880E87
:100CA000991E1814190444F081E090E0DC01A819A1
:100CB000B909BE83AD8302C01E821D8220E030E0F0
:100CC000A901C301B2010E94521487FF07C08DE23F
:100CD000F801808388248394912C02C0812C912C6C
:100CE000A114B10449F4F801E80DF91D80E38083F3
:100CF00094012F5F3F4F4901212C312CB101680D28
:100D0000791D78876F832A143B04D1F129813A81B8
:100D10004B815C81C701B6010E9457140E94C9141F
:100D20002B013C016F817885600F711F4AE0C20181
:100D30000E949A13B201550C880B990B0E94011561
:100D400029813A814B815C810E94B6159B01AC01DF
:100D5000C701B6010E94E5136B017C0120E030E081
:100D600040E251E469817A818B819C810E94571411
:100D700069837A838B839C833FEF231A330ABECF28
:100D80005B0189859A851816190644F4F801E60F67
:100D9000F71F8EE28083DB0111965D01812C912C7F
:100DA000E985FA858E169F064CF520E030E040E29A
:100DB00051E4C701B6010E94B6152B013C010E9407
:100DC000C9146B017C01B4016A0D7B1D600F711F9A
:100DD0004AE0C6010E949A13B601DD0C880B990BFC
:100DE0000E9401159B01AC01C301B2010E94E513F1
:100DF0006B017C01BFEF8B1A9B0AD2CFCF01F7FFAB
:100E000002C080E090E0A80EB91E2D813E81232B08
:100E100089F09501F801EA0DFB1D40E26FEFA61A7B
:100E2000B60A4193C501821B930BAD81BE818A171F
:100E30009B07A4F3F801EA0DFB1D1082C8012A9656
:100E40000FB6F894DEBF0FBECDBFDF91CF911F91DB
:100E50000F91FF90EF90DF90CF90BF90AF909F9059
:100E60008F907F906F905F904F903F902F9008955C
:100E70002F923F924F925F926F927F928F929F92AA
:100E8000AF92BF92CF92DF92EF92FF920F931F9398
:100E9000CF93DF93C090A402D090A502E090A60269
:100EA000F090A7020E94420420917C022223E9F0E4
:100EB00060E08EE70E944E0561E082E90E944E05E7
:100EC00061E083E20E944E0561E080917C020E9415
:100ED0004E0580910401882311F0815003C01092C7
:100EE0007C0286E08093040170C324EFC20E21E0EF
:100EF000D21EE11CF11C11E0C616D706E806F90661
:100F000008F010E060E08EE70E944E0561E08FE996
:100F10000E944E05111170C080917D02A091FA01CE
:100F2000B091FB01E82FF0E0EE0FFF1FE45AFD4FF8
:100F300020813181232B49F48F5F282F30E02A173D
:100F40003B0784F310927D0202C080937D02609182
:100F50007D02F6E0E0E026E030E0E12C40E050E009
:100F600070E0CA01860F971F8A179B07A4F50097A8
:100F700009F1E394880F991FFC01E45CFD4F808127
:100F80008F718830A1F0813019F4C901039615C022
:100F9000811103C0C901029610C0853019F4C9013E
:100FA00004960BC0893019F0C901019606C0C90129
:100FB000059603C0C9012F2F3E2F4F5F5F4F403171
:100FC000510551F08B31910514F0EA9404C0F22FD1
:100FD000E32F9C01C6CFC901C82FC06481E0809374
:100FE000EF016C2F87ED91E00E94480360E08C2FA9
:100FF0000E949804C82F1DC0E091AA02F0E0EE0FF5
:10100000FF1FE35CFD4F8081C82FCF7182958695CD
:101010008770C80FC85F81E08093EF016C2F87ED68
:1010200091E00E94480360E08C2F0E949804C82F32
:10103000E12CD1E0D093EF0161E187ED91E00E94D6
:1010400048036C2F81E10E949804C82FD093EF01D0
:1010500064EA87ED91E00E9448036C2F84EA0E94C5
:101060009804C82FD093EF0162E087ED91E00E94D1
:1010700048036C2F82E00E949804C82FD093EF01A0
:1010800069E087ED91E00E9448036C2F89E00E949F
:101090009804C82FD093EF0160E087ED91E00E94A3
:1010A00048031092EF016C2F80E00E949804F82E04
:1010B0001111EAC1C0917D026E2C6C0E2091FA01D3
:1010C0003091FB01C61551F0772473947C0E709219
:1010D0007D020C2F10E00217130754F080917D025F
:1010E00090E0821793070CF46CC210927D0269C2E3
:1010F000CC2309F4C7C1E091A802F091A902099597
:10110000C295C07F680131E2C30ED11CC601880FB1
:10111000991FFC01E650FE4F5F0180818F7190E0C6
:101120008530910509F4BEC0F4F5009709F495C027
:10113000019709F0A7C1000F111FF801E45AFD4FF4
:101140000190F081E02D00811181C160D093EF0109
:101150006C2F87ED91E00E9448036F2D8C2F0E9429
:101160009804C82F1F79F5012081229526952770B4
:1011700030E0322F22273295330F307E022B132B93
:10118000D093EF01602F87ED91E00E9448036C2F10
:10119000802F0E949804082F912F9F79F501C0811C
:1011A000C07EC92B74C08830910521F0099709F4DD
:1011B000C2C068C1C860D093EF016C2F87ED91E089
:1011C0000E9448036F2D8C2F0E949804C82F000F97
:1011D000111FF801E45AFD4F0190F081E02D80814C
:1011E0009181A281B3816C017D01FFE9FF22D0933F
:1011F000EF016C2D87ED91E00E9448036C2F8C2D40
:101200000E949804C82F2D2C3E2C4F2C552447FCAF
:101210005A94D093EF01622D87ED91E00E9448032C
:101220006C2F822D0E949804C82F1701552437FC7B
:101230005094452CD093EF01622D87ED91E00E94F0
:1012400048036C2F822D0E949804182F9F2D9F79A0
:10125000F501C081C07EC92B62C0000F111FF801CB
:10126000E45AFD4F0190F081E02D1081D093EF0101
:101270006C2F87ED91E00E9448036F2D8C2F0E9408
:101280009804082F1F79F501C081C07EC12BD0932F
:10129000EF016C2F87ED91E00E9448031092EF015F
:1012A000602F47C0C560D093EF016C2F87ED91E0B0
:1012B0000E9448031092EF016F2D8C2F0E9498041A
:1012C000F82E000F111FF801E45AFD4F0190F08134
:1012D000E02D118102819081F501208122952695D2
:1012E0002770213011F0C0E001C0C0E4C92BD093B9
:1012F000EF01602F87ED91E00E9448036F2D802F52
:101300000E949804082FD093EF01612F87ED91E0A0
:101310000E944803602F812F0E949804182FD093B9
:10132000EF016C2F87ED91E00E9448031092EF01CE
:10133000612F8C2FA4C0C960D093EF016C2F87ED73
:1013400091E00E9448036F2D8C2F0E949804C82FB3
:10135000000F111FF801E45AFD4F0190F081E02DBC
:1013600080809180A280B38020E030E0A901C50197
:10137000B4010E94B11518161CF4C501B40103C0D4
:10138000C501B40190580E94D0148B0180E090E018
:101390000E94FF149B01AC01C501B4010E94E5133A
:1013A0002AE939E949E15FE30E94B61520E030E51A
:1013B00043EC57E40E94B6151B012C0120E030E0FD
:1013C000A9010E94B11518161CF4C201B10103C095
:1013D000C201B10190580E94D014562EF72E812FD1
:1013E0008170F601EE0FFF1FE650FE4F908192953F
:1013F00096959770913011F090E001C090E2192F0E
:10140000182B20E030E0A901C501B4010E9452145C
:10141000881F8827881F8295880F880F807C182B4B
:10142000D093EF01652D87ED91E00E9448036C2F6A
:10143000852D0E949804C82FD093EF016F2D87ED62
:1014400091E00E9448036C2F8F2D0E949804C82FB2
:10145000D093EF01602F87ED91E00E9448036C2F3D
:10146000802F0E949804C82FD093EF01612F87ED41
:1014700091E00E9448031092EF016C2F812F0E948F
:101480009804F82EC72D1ACEC091AA02D093EF016E
:101490006C2F87ED91E00E9448036F2D8C2F0E94E6
:1014A0009804B82E0C2F10E06801CC0CDD1C9601BE
:1014B000235C3D4F4901F9012081922F9F71F8E093
:1014C0009F9F70011124229526952770E22AD093C0
:1014D000EF016E2D87ED91E00E9448031092EF011D
:1014E0006B2D8E2D0E949804F82EF601E450FE4FCD
:1014F000D081AD2EB180772473942A2D2D1B30E03E
:10150000F40180818F7190E028173907A4F4F50168
:10151000E4907092EF016E2D87ED91E00E944803F8
:101520001092EF016F2D8E2D0E949804F82EFFEF80
:10153000AF1ABF0AE2CF000F111FD801A45EBD4F42
:10154000DC910D2F11961C919601235C3D4F690192
:10155000BB24B394202F2D1B30E0F60180818295AF
:101560008695877090E0281739079CF4F801E4907D
:10157000B092EF016E2D87ED91E00E94480310922A
:10158000EF016F2D8E2D0E949804F82E0F5F1F4FD4
:10159000E1CFCF5FC093AA028C2F90E02091FA0197
:1015A0003091FB018217930714F01092AA020E9457
:1015B00042046093A4027093A5028093A6029093C4
:1015C000A70261E08F2D0E944E05E091A802F091E4
:1015D000A902099560E08EEF0E944E05C2E8D2E0B4
:1015E0001C2F105E61E089910E944E051C13FACFFA
:1015F00060E08FEF0E944E0581E0DF91CF911F9157
:101600000F91FF90EF90DF90CF90BF90AF909F90A1
:101610008F907F906F905F904F903F902F900895A4
:10162000CF92DF92FF920F931F93CF93DF9320917E
:10163000FA013091FB0120313105CCF56B018901B4
:101640000F5F1F4FF801EE0FFF1FE650FE4F918313
:101650008083F901EE0FFF1FE45EFD4F718360830D
:10166000F901EE0FFF1FE45AFD4F11821082220F85
:10167000331FE901C45CDD4F18820E949113982F3B
:101680009F718981807EF82EF92AC6010E949113EC
:101690008295880F807E9F2D9F71F92EF82AF982FE
:1016A0001093FB010093FA018FEF800F01C08FEFC1
:1016B000DF91CF911F910F91FF90DF90CF90089510
:1016C000CF93DF9387ED91E00E943805C7EDD1E01D
:1016D00061E08C850E94060461E08C85DF91CF91EA
:1016E0000C94D6038091F4019091F501892B31F18E
:1016F0008091D1019091D20121E0873D9207F1F0D4
:10170000009711F00E9438058091EE018E7F809342
:10171000EE011092D0011092CF0187ED91E09093ED
:10172000D2018093D101E091EA01F091EB01908127
:101730008091EC01892B808381E0089580E00895F9
:1017400081E691E09093D8018093D70187ED91E0F5
:101750000C943805CF93DF93CDB7DEB7E6970FB67D
:10176000F894DEBF0FBECDBF789484B5826084BD8F
:1017700084B5816084BD85B5826085BD85B5816095
:1017800085BD80916E00816080936E001092810013
:1017900080918100826080938100809181008160CE
:1017A000809381008091800081608093800080918F
:1017B000B10084608093B1008091B000816080931B
:1017C000B00080917A00846080937A0080917A00E2
:1017D000826080937A0080917A00816080937A00A1
:1017E00080917A00806880937A001092C10061E055
:1017F0008DE00E94060461E08DE00E94D60361E066
:1018000083E00E94060460E083E00E94D60380919A
:10181000950190919601909301018093000161ECF4
:1018200070E081ED90E00E94CC0289EB90E0909313
:10183000FD018093FC0110921D0210921C02109277
:101840005D0210925C0210923C0287E080933D02A0
:1018500081E090E09093FB018093FA0161E083E0E6
:101860000E94D60361E083E00E94060452E0E52E68
:1018700051E0F52EF70184918093E7010EEE10E020
:10188000F801849190E0880F991F8A579F4FFC01BF
:10189000259134913093E9012093E80160E083E0E1
:1018A0000E94060461E083E00E94D60383E08093F7
:1018B000E301F701E490E092E401F8010491E02FE4
:1018C000F0E0EE0FFF1FEF51FF4F85919491909341
:1018D000E6018093E50181E08093ED0185E991E0E7
:1018E0009093F9018093F80129EB30E03093F101F6
:1018F0002093F00123E931E03093F3012093F201CA
:1019000046E554E05093F5014093F4013093F7011C
:101910002093F601209168002460209368002DE652
:1019200030E03093EB012093EA0128E02093EC01B2
:101930000197F1F70E94720B0E94600B62E085E054
:101940000E94060480E090E00E94CF138130F9F0FD
:1019500061E080E090E00E94D40360E081E090E0EC
:101960000E94D40360E082E090E00E94D40360E033
:1019700083E090E00E94D40364E684E090E00E945B
:10198000D4031A821982CE0101960E94610581E07A
:1019900090E00E94CF13C82ED12CD092AE01C092FD
:1019A000AD0182E090E00E94CF13082F10E0109369
:1019B000CE010093CD0183E090E00E94CF13E82E8A
:1019C000F12CF0929201E092910184E090E00E946B
:1019D000CF13A82EB12CB0929001A0928F01CA947F
:1019E000CD2809F474C0F801EE0FFF1FEE0FFF1FA2
:1019F000E35DFE4F80819181A281B3818093BF011D
:101A00009093C001A093C101B093C201000F111FB8
:101A1000F801EB5EFE4F808191819093C401809329
:101A2000C3019701220F331FF901E35FFE4FE080EE
:101A3000F180F0928E01E0928D01F901EB5FFE4F93
:101A40000081118110938C0100938B0124E6A21A6E
:101A5000B108B0920301A0920201B801012E000C5E
:101A6000880B990B0E9401154B015C01C701800F87
:101A7000911FBC01990F880B990B0E9401159B01C6
:101A8000AC01C501B4010E9457146093C901709361
:101A9000CA018093CB019093CC016FEA70E081EB97
:101AA00090E00E94100B803138F590E0FC01EE0FC1
:101AB000FF1FE45AFD4F27E931E031832083880F6F
:101AC000991FFC01E45CFD4F88E2808315C083ED23
:101AD000882E81E0982E9AE0C92ED12CC6010E9452
:101AE000CF13F40181934F01FFEFCF1ADF0A2EE0ED
:101AF000C216D10499F777CF62EA70E086EA90E0E7
:101B00000E94100B803188F490E0FC01EE0FFF1F63
:101B1000E45AFD4F23ED31E031832083880F991F74
:101B2000FC01E45CFD4F88E0808368E970E08AE9AD
:101B300090E00E94100B803188F490E0FC01EE0FE1
:101B4000FF1FE45AFD4F2BE931E031832083880FDA
:101B5000991FFC01E45CFD4F88E4808360E970E03C
:101B600082E990E00E94100B803188F490E0FC0143
:101B7000EE0FFF1FE45AFD4F27EB31E03183208346
:101B8000880F991FFC01E45CFD4F88E080830E9470
:101B9000380760E08DE00E94D60301E010E0212CC0
:101BA000312C8091CD019091CE01892B09F4A9C1EE
:101BB00080E10E94F701BC01990F880B990B0E94EC
:101BC000011520E030EC4FE754E40E94571420E068
:101BD00030E040EA50E40E94B6152091C9013091EE
:101BE000CA014091CB015091CC010E9457146B0166
:101BF0007C016093C5017093C6018093C7019093E7
:101C0000C80181E10E94F701BC01990F880B990B73
:101C10000E94011520E030EC4FE754E40E94571475
:101C200020E030E94CE955E40E94B6154B015C0117
:101C30006091C3017091C401072E000C880B990BB1
:101C40000E9401159B01AC01C501B4010E94E5137E
:101C50004B015C016091020170910301072E000CA1
:101C6000880B990B0E9401159B01AC01C501B401C1
:101C70000E94E6132091BF013091C0014091C10143
:101C80005091C2010E9457144B015C0120E030E0EA
:101C9000A9010E94521487FD09C08092BB01909255
:101CA000BC01A092BD01B092BE0108C01092BB0160
:101CB0001092BC011092BD011092BE018090BB0138
:101CC0009090BC01A090BD01B090BE01A70196010B
:101CD000C501B4010E94B6150E94C9146093B701F2
:101CE0007093B8018093B9019093BA010E944204A5
:101CF0004090B3015090B4016090B5017090B6016E
:101D000073016201E4EFCE0EE1E0DE1EE11CF11C86
:101D1000C616D706E806F90608F054C00E94420429
:101D20006B017C01C418D508E608F708C092AF0122
:101D3000D092B001E092B101F092B2016091D30172
:101D40007091D4018091D5019091D6010E94011526
:101D50006BAB7CAB8DAB9EAB20E030E04AE754E44C
:101D6000C501B4010E94B6152B013C01C701B601A3
:101D70000E94FF1420E03AEB4BE55AE40E9457140E
:101D80009B01AC01C301B2010E94B6159B01AC01DD
:101D90006BA97CA98DA99EA90E94E6130E94C91473
:101DA0006093D3017093D4018093D5019093D601B1
:101DB0000E9442046093B3017093B4018093B50113
:101DC0009093B601E090AD01F090AE01F1E0EF1616
:101DD000F10419F520E030E040E050E4C501B40121
:101DE0000E94B1151816CCF4F092AC01E092AB0150
:101DF0001092AA011092A9010E944204DC01CB01B9
:101E00008856954CAF4FBF4F8093A5019093A60184
:101E1000A093A701B093A80104C01092AC01109246
:101E2000AB010E9442046093A1017093A2018093D0
:101E3000A3019093A40121E0E216F104F9F42091AA
:101E4000AB013091AC01232BC9F42091A901309151
:101E5000AA01232B99F48090A5019090A601A0904F
:101E6000A701B090A80186169706A806B90634F413
:101E70000E948C05F092AA01E092A9018091AD0127
:101E80009091AE01019709F05CC0E8E1F1E0849126
:101E9000E4E0F1E0F490E0EFF0E0E490EE20A1F077
:101EA00081110E94CE01EE2DF0E0EE0FFF1FEF51E9
:101EB000FF4FA591B4918C91F82231E020E009F414
:101EC00030E0832F922F02C080E090E09093A00139
:101ED00080939F012091AB013091AC01232B89F5B8
:101EE000892B79F51092D3011092D4011092D5016B
:101EF0001092D6010E948C051093AA010093A901AB
:101F000020C01092C5011092C6011092C701109214
:101F1000C8011092BB011092BC011092BD01109239
:101F2000BE011092B7011092B8011092B90110923F
:101F3000BA011092D3011092D4011092D5011092DF
:101F4000D60120E030E048EC52E46091C501709188
:101F5000C6018091C7019091C8010E94B6150E94E8
:101F6000C91460939B0170939C0180939D01909391
:101F70009E0120E030E040E251E46091BB017091AD
:101F8000BC018091BD019091BE010E94B6150E94D6
:101F9000C91460939701709398018093990190936D
:101FA0009A01E0919501F0919601E930F10521F057
:101FB000109294011092930180910001909101017F
:101FC0008E179F0721F0F0930101E0930001EA30A2
:101FD000F10508F0EDC1EC5CFF4F0C9437166DEC89
:101FE00072E08DED92E0E2C11A8A198267EC72E02C
:101FF000CE0142960E9486131BA24091BB015091D4
:10200000BC016091BD017091BE0121E030E0CE01C4
:1020100083960E94B805BE016D5D7F4FCE0142964A
:102020000E94561665EC72E0CE0142960E9486131D
:102030006FEB72E0CE0101960E9486131BA26091A5
:10204000D3017091D4018091D5019091D6010E9465
:102050000115AB01BC0120E030E0CE0183960E9467
:10206000B805BE016D5D7F4FCE0101960E945616E8
:102070006BEB72E08BC11A8A198261EB72E0CE01C0
:1020800042960E9486131BA24091C5015091C60141
:102090006091C7017091C80122E030E0CE018396C3
:1020A0000E94B805BE016D5D7F4FCE0142960E9431
:1020B00056166FEA72E0CE0142960E94861365EAD8
:1020C00072E0CE0101960E9486131BA26091B701B7
:1020D0007091B8018091B9019091BA010E940115E7
:1020E000AB01BC0120E030E0CE0183960E94B80530
:1020F000BE016D5D7F4FCE0101960E94561663EAC8
:1021000072E044C11A8A198262E972E0CE014296F5
:102110000E9486138091CD019091CE01892B31F4DC
:1021200062E872E0CE0101960E9486138091CD0193
:102130009091CE01019731F466E772E0CE010196ED
:102140000E9486138091CD019091CE01029731F4C7
:102150006AE672E0CE0101960E9486138091CD015D
:102160009091CE01039731F46EE572E0CE010196B5
:102170000E9486138091CD019091CE01049731F495
:1021800061E572E0CE0101960E9486138091CD0137
:102190009091CE01059731F463E472E0CE0101968F
:1021A0000E9486138091CD019091CE01069731F463
:1021B00065E372E0CE0101960E9486138091CD0105
:1021C0009091CE01079731F467E272E0CE0101965B
:1021D0000E9486138091CD019091CE01089731F431
:1021E0006AE172E0CE0101960E9486138091CD01D2
:1021F0009091CE01099731F46CE072E0CE01019626
:102200000E9486138091CD019091CE010A9731F4FE
:102210006EEF71E0CE0101960E9486138091CD0190
:102220009091CE010B9709F0B5C060EF71E0AEC0A0
:102230001A8A19826FED71E0CE0142960E948613D0
:102240008091910190919201892B31F460ED71E0C0
:10225000CE0101960E948613809191019091920186
:10226000019731F462EC71E0CE0101960E94861371
:102270008091910190919201029731F464EB71E0A9
:10228000CE0101960E948613809191019091920156
:10229000039709F07FC063EA71E078C01A8A198257
:1022A00069E971E0CE0142960E9486131BA240911B
:1022B000BB015091BC016091BD017091BE0122E053
:1022C00030E0CE0183960E94B805BE016D5D7F4F60
:1022D000CE0142960E94561667E971E0CE01429601
:1022E0000E94861369E871E0CE0101960E94861370
:1022F0001BA260918F0170919001645671097093D7
:10230000030160930201072E000C880B990B0E94B9
:102310000115AB01BC0120E030E0CE0183960E94A4
:10232000B805BE016D5D7F4FCE0101960E94561625
:1023300031C01A8A19826DE771E0CE0142960E947F
:1023400086138091AD019091AE01892B31F46AE73B
:1023500071E0CE0142960E9486138091AD0190916A
:10236000AE01019731F466E771E0CE0142960E941A
:10237000861365E671E00AC01A8A198267E571E082
:10238000CE0142960E94861367E471E0CE01019669
:102390000E948613BE016F5F7F4FCE0142960E945E
:1023A000020306C067E271E087E391E00E94CC027D
:1023B00087ED91E00E9438050E94600B0E9438076B
:1023C00060E08091E3010E94060461E08091E301F6
:1023D0000E94D6030E94720B0E94720B0E9442045C
:1023E0006B017C01F4E6CF0ED11CE11CF11CA12C89
:1023F000B12C0E9442046C157D058E059F0588F561
:1024000087ED91E00E9490021816190694F787ED67
:1024100091E00E9490021816190614F0712C1AC04F
:1024200087ED91E00E94A702782E8091A302871188
:102430001CC180907E0290907F02A0908002B0909C
:1024400081020E94420486169706A806B90608F47F
:102450000CC1E4CF872D90E0009709F01EC15C010C
:10246000C8CFC501803F910509F4F7C0009709F472
:10247000F4C0803B910509F4B0C044F48037910565
:10248000F1F18039910509F4D9C0E7C0803D91058B
:1024900009F44DC0803E910509F0DFC0809195019F
:1024A000909196018930910509F4D7C08830910543
:1024B00021F561E080E090E00E94D4036091AD01DD
:1024C00081E090E00E94D4036091CD0182E090E031
:1024D0000E94D4036091910183E090E00E94D403B4
:1024E00060918F0184E090E00E94D4031A821982E7
:1024F000CE0101960E946105ACC0019613C0809187
:102500009501909196018336910521F410929601E0
:10251000109295018091950190919601009709F490
:102520009CC00197909396018093950196C08091ED
:1025300095019091960183309105C1F48091CD0170
:102540009091CE018C3091052CF401969093CE01A0
:102550008093CD018091CD019091CE010C9709F02F
:102560007CC01092CE011092CD0177C084309105CD
:10257000C1F48091910190919201843091052CF4E5
:102580000196909392018093910180919101909195
:102590009201049709F061C010929201109291018A
:1025A0005CC08530910531F480918F01909190014C
:1025B00001963FC0069709F050C08091AD019091FF
:1025C000AE01892B29F41093AE010093AD0145C0F3
:1025D0001092AE011092AD0140C080919501909192
:1025E000960183309105C9F48091CD019091CE017F
:1025F000892B31F48CE090E09093CE018093CD0153
:102600008091CD019091CE011816190634F50197ED
:102610009093CE018093CD0120C08430910509F4C0
:10262000A8CF8530910531F680918F01909190016E
:1026300001979093900180938F010FC08091950135
:1026400090919601079749F460E080E090E00E9445
:10265000D4030E943302F101099580E090E0892BB8
:1026600009F49FCA0E94000098CA0E944204DC013B
:10267000CB0180579E4FAF4FBF4F80937E02909308
:102680007F02A0938002B09381027092A30290EF28
:102690007912E0CE80EF90E0E2CE803F910509F024
:1026A000E8CEDBCFE7EDF1E01382128288EE93E013
:1026B000A0E0B0E084839583A683B78381E691E0B0
:1026C00091838083AEEEB1E08C918E7F8C93128EDD
:1026D000118E148E138E168E158E12A211A21092C8
:1026E0007E0210927F02109280021092810210925C
:1026F0007C021092FB011092FA0110927D028AE690
:1027000092E09093A9028093A8020895FB01DC0156
:102710000D900020E9F7119705900D920020E1F748
:102720000895FC0105900020E9F7809590958E0FA3
:102730009F1F0895BB274A3031F4992322F4BDE24C
:10274000909581959F4F0C94A613BB27FB015527AD
:10275000AA27880F991FAA1FA41710F0A41B8395FE
:102760005051B9F7A05DAA3308F0A95DA193009775
:1027700079F7B111B1931192CB010C94BF13DC0125
:10278000FC01672F71917723E1F7329704C07C91A8
:102790006D9370836291AE17BF07C8F30895F999DE
:1027A000FECF92BD81BDF89A992780B50895262F56
:1027B000F999FECF1FBA92BD81BD20BD0FB6F89426
:1027C000FA9AF99A0FBE019608955058BB27AA2786
:1027D0000E94FD130C9477150E94691538F00E9431
:1027E000701520F039F49F3F19F426F40C94661507
:1027F0000EF4E095E7FB0C946015E92F0E94881514
:1028000058F3BA17620773078407950720F079F425
:10281000A6F50C94AA150EF4E0950B2EBA2FA02D58
:102820000B01B90190010C01CA01A0011124FF277D
:10283000591B99F0593F50F4503E68F11A16F04078
:10284000A22F232F342F4427585FF3CF4695379577
:102850002795A795F0405395C9F77EF41F16BA0B3C
:10286000620B730B840BBAF09150A1F0FF0FBB1FEA
:10287000661F771F881FC2F70EC0BA0F621F731F33
:10288000841F48F4879577956795B795F7959E3F90
:1028900008F0B0CF9395880F08F09927EE0F979521
:1028A000879508950E943C1508F481E008950E94E0
:1028B0006B140C9477150E94701558F00E946915DE
:1028C00040F029F45F3F29F00C94601551110C94ED
:1028D000AB150C9466150E94881568F39923B1F323
:1028E000552391F3951B550BBB27AA276217730736
:1028F000840738F09F5F5F4F220F331F441FAA1FCA
:10290000A9F335D00E2E3AF0E0E832D09150504085
:10291000E695001CCAF72BD0FE2F29D0660F771F33
:10292000881FBB1F261737074807AB07B0E809F019
:10293000BB0B802DBF01FF2793585F4F3AF09E3F9E
:10294000510578F00C9460150C94AB155F3FE4F3DF
:10295000983ED4F3869577956795B795F7959F5FE1
:10296000C9F7880F911D9695879597F90895E1E02D
:10297000660F771F881FBB1F621773078407BA078C
:1029800020F0621B730B840BBA0BEE1F88F7E095E7
:1029900008950E94D0146894B1110C94AB15089559
:1029A0000E94901588F09F5798F0B92F9927B7513A
:1029B000B0F0E1F0660F771F881F991F1AF0BA95E3
:1029C000C9F714C0B13091F00E94AA15B1E0089582
:1029D0000C94AA15672F782F8827B85F39F0B93F74
:1029E000CCF3869577956795B395D9F73EF4909596
:1029F0008095709561957F4F8F4F9F4F0895E89414
:102A000009C097FB3EF490958095709561957F4F36
:102A10008F4F9F4F9923A9F0F92F96E9BB279395E4
:102A2000F695879577956795B795F111F8CFFAF4F4
:102A3000BB0F11F460FF1BC06F5F7F4F8F4F9F4F25
:102A400016C0882311F096E911C0772321F09EE883
:102A5000872F762F05C0662371F096E8862F70E0E9
:102A600060E02AF09A95660F771F881FDAF7880FC3
:102A70009695879597F90895990F0008550FAA0B19
:102A8000E0E8FEEF16161706E807F907C0F0121681
:102A90001306E407F50798F0621B730B840B950B84
:102AA00039F40A2661F0232B242B252B21F40895D9
:102AB0000A2609F4A140A6958FEF811D811D089576
:102AC00097F99F6780E870E060E008959FEF80ECE1
:102AD000089500240A941616170618060906089584
:102AE00000240A9412161306140605060895092EEA
:102AF0000394000C11F4882352F0BB0F40F4BF2B59
:102B000011F460FF04C06F5F7F4F8F4F9F4F089598
:102B100057FD9058440F551F59F05F3F71F047958E
:102B2000880F97FB991F61F09F3F79F08795089573
:102B3000121613061406551FF2CF4695F1DF08C092
:102B4000161617061806991FF1CF869571056105AF
:102B500008940895E894BB2766277727CB0197F957
:102B600008950E943C1508F48FEF08950E94C9153E
:102B70000C9477150E94691538F00E94701520F0AA
:102B8000952311F00C9460150C94661511240C9487
:102B9000AB150E94881570F3959FC1F3950F50E017
:102BA000551F629FF001729FBB27F00DB11D639FFF
:102BB000AA27F00DB11DAA1F649F6627B00DA11DA5
:102BC000661F829F2227B00DA11D621F739FB00D4B
:102BD000A11D621F839FA00D611D221F749F3327BB
:102BE000A00D611D231F849F600D211D822F762F54
:102BF0006A2F11249F5750409AF0F1F088234AF031
:102C0000EE0FFF1FBB1F661F771F881F915050409C
:102C1000A9F79E3F510580F00C9460150C94AB15FC
:102C20005F3FE4F3983ED4F3869577956795B79523
:102C3000F795E7959F5FC1F7FE2B880F911D96953D
:102C4000879597F9089597FB072E16F4009407D0FF
:102C500077FD09D00E943D1607FC05D03EF4909503
:102C600081959F4F0895709561957F4F0895EE0F60
:102C7000FF1F0590F491E02D0994AA1BBB1B51E1A5
:102C800007C0AA1FBB1FA617B70710F0A61BB70BDC
:102C9000881F991F5A95A9F780959095BC01CD0181
:102CA000089581E090E0F8940C946116FB01DC013A
:102CB0000D900020E9F7119701900D920020E1F7A7
:102CC000089511E0C8E7D1E004C0FE010E94371664
:0C2CD0002196C937D107C9F7F894FFCF4F
:102CDC000100640006E803D007E803D007F82A10C7
:102CEC0027D007D007C409C409C409C409C409C43E
:102CFC0009C409C40958025802580258020000C8F5
:102D0C0042000039430000C8420000844200002009
:102D1C00420000A041CDCC54410000204100007085
:102D2C0042000020429A99D5410000A041000000C9
:102D3C00004803A301C9028F029002A70277020088
:00000001FF
