:100000000C9485010C94AD010C94AD010C94330457
:100010000C9433040C9433040C94AD010C94AD0196
:100020000C94AD010C94AD010C94AD010C94AD0198
:100030000C94AD010C94AD010C94AD010C94AD0188
:100040000C94DD030C94AD010C94AD010C94AD0146
:100050000C94AD010C94AD010C94AD010C94AD0168
:100060000C94AD010C94AD0145104A109110D810BC
:100070006E11A411DA112512481264125E120000EA
:100080000000240027002A000000000025002800AE
:100090002B005700506F776572005600566F6C74D6
:1000A000616765006D4168004361706163697479DF
:1000B00000410043757272656E74005243542041D2
:1000C0006D700020416D7053656E736F7220312E1C
:1000D000310020524354204A65746920546F6F6C7C
:1000E000730000000000230026002900040404041B
:1000F00004040404020202020202030303030303D2
:1001000001020408102040800102040810200102AE
:10011000040810200000000800020100000304078A
:10012000000000000000000020416D7053656E73F8
:100130006F7220312E310020524354204A65746979
:1001400020546F6F6C7300527374205570446E208E
:1001500053617665203E005265736574206F72208E
:1001600053617665004368616E676520446E204E7A
:10017000657874203E00596573004E6F00446967CE
:100180002E52657365743A200043616C6962726136
:1001900074696F6E3A20005600566F6C7461676523
:1001A0003A200043616C6962726174696F6E3A2033
:1001B00000410043757272656E743A200020204D34
:1001C00061782E2032532F52782031305600202073
:1001D0004D61782E203353203135560020204D615B
:1001E000782E203653203330560020204D61782E53
:1001F000203134532036305600536574204D6178D9
:100200002E20566F6C746167650020204143533780
:1002100035382D32303055002020414353373538A2
:100220002D313530550020204143533735382D319D
:100230003030550020204143533735382D35305567
:100240000020204143533735382D323030420020D2
:10025000204143533735382D31353042002020417D
:1002600043533735382D313030420020204143533D
:100270003735382D35304200202041435337313255
:100280002D33300020204143533731322D3230009E
:1002900020204143533731322D3035002053656ED5
:1002A000736F72204E6F7420536574005365742011
:1002B00053656E736F7220547970653A0057005021
:1002C0006F7765723A202020005600566F6C74617B
:1002D00067653A20006D4168004361703A20004133
:1002E000004375723A200020416D7053656E736F44
:1002F0007220312E310020524354204A6574692007
:10030000546F6F6C73000614B50B11241FBECFEF32
:10031000D8E0DEBFCDBF11E0A0E0B1E0E4E4FEE252
:1003200002C005900D92A237B107D9F722E0A2E7EB
:10033000B1E001C01D92A33BB207E1F711E0C4E8B0
:10034000D1E004C02197FE010E94EB16C338D1070B
:10035000C9F70E94BF0B0C9415170C940000CF92A4
:10036000DF92EF92FF920F931F93CF93DF936C0175
:100370007A018B01C0E0D0E0CE15DF0589F0D8010D
:100380006D918D01D601ED91FC910190F081E02DF0
:10039000C6010995892B11F47E0102C02196ECCF8C
:1003A000C701DF91CF911F910F91FF90EF90DF90E8
:1003B000CF900895833081F028F4813099F0823015
:1003C000A1F008958730A9F08830B9F08430D1F4D5
:1003D000809180008F7D03C0809180008F77809313
:1003E0008000089584B58F7702C084B58F7D84BD69
:1003F00008958091B0008F7703C08091B0008F7D09
:100400008093B00008958E3008F08E50877080641D
:1004100080937C0080917A00806480937A00809140
:100420007A0086FDFCCF809178002091790090E0E1
:10043000922B08950895DC015196ED91FC9152970D
:10044000908150968C918095892380830895209186
:10045000D9013091DA012817390771F49091D70149
:100460008091D801981741F0E091D701F0E0EC5865
:10047000FE4F808190E008958FEF9FEF08950895DB
:100480002091D9013091DA012817390769F4809158
:10049000D8012091D70190E04096821B910960E13C
:1004A00070E00E94D716089580E090E008952091B2
:1004B000D9013091DA0128173907B9F49091D701A1
:1004C0008091D801981789F0E091D701F0E0EC58BD
:1004D000FE4F80812091D70130E02F5F3F4F2F707A
:1004E00033272093D70190E008958FEF9FEF089571
:1004F000089580E090E008950E940517CF92DF9262
:10050000EF92FF920F931F93CF93DF93EC0189A19A
:100510009AA1009729F421E030E03B832A8371C03F
:100520000FB7F8948F8D98A1892B91F028E030E0D7
:1005300090E081E0482F462309F09F5F880F21500B
:100540003109C1F7888D81119F5F192F109501C066
:1005500010E0F62ECE010E941B0289A19AA10197FC
:10056000F1F788E0C82ED12CEE24E3948E2D8F2154
:1005700039F0E989FA8990818889892B808303C0C1
:10058000CE010E941B0289A19AA10197F1F7EE0CFE
:1005900081E0C81AD10851F78E89882389F0888DA7
:1005A000882339F0E989FA8990818889892B8083A9
:1005B00003C0CE010E941B0289A19AA10197F1F705
:1005C0008F8D98A1892B81F010FF07C0E989FA89E6
:1005D00090818889892B808303C0CE010E941B02F1
:1005E0008F8D98A10197F1F7E989FA89908188891F
:1005F000892B80830FBF8D8D9E8D0197F1F781E050
:1006000090E0DF91CF911F910F91FF90EF90DF90DD
:10061000CF900895AF92BF92CF92DF92EF92FF9268
:100620000F931F93CF93DF931F92CDB7DEB75C017B
:100630007B018B016C0182E0C80ED11CF801619135
:100640008F01C50169830E9483146981681719F0BD
:10065000C5010E948B14FFEFAF1ABF0AAC14BD0492
:1006600069F7C7010F90DF91CF911F910F91FF9014
:10067000EF90DF90CF90BF90AF9008950C948B14C3
:100680001F93CF93DF93282F30E0F901EC5EFE4FEC
:100690008491F901E050FF4FD491F901E451FF4FEB
:1006A000C491CC23C9F0162F81110E94DA01EC2FDE
:1006B000F0E0EE0FFF1FE857FF4FA591B4918FB701
:1006C000F894111105C09C91ED2FE095E92302C02B
:1006D000EC91ED2BEC938FBFDF91CF911F9108959B
:1006E000CF93DF9390E0FC01E050FF4F2491FC0199
:1006F000E451FF4F8491882361F190E0880F991FA6
:10070000FC01E258FF4FC591D491FC01E857FF4F1F
:10071000A591B491611109C09FB7F8948881209583
:1007200082238883EC912E230BC0623061F49FB743
:10073000F8943881822F809583238883EC912E2B27
:100740002C939FBF06C08FB7F894E8812E2B288387
:100750008FBFDF91CF9108953FB7F89480918901C1
:1007600090918A01A0918B01B0918C0126B5A89B34
:1007700005C02F3F19F00196A11DB11D3FBFBA2F33
:10078000A92F982F8827820F911DA11DB11DBC0193
:10079000CD0142E0660F771F881F991F4A95D1F758
:1007A00008952FB7F894609185017091860180912A
:1007B0008701909188012FBF08951F920F920FB665
:1007C0000F9211242F933F938F939F93AF93BF93D7
:1007D0008091850190918601A0918701B091880157
:1007E0003091840123E0230F2D3720F40196A11DC1
:1007F000B11D05C026E8230F0296A11DB11D20934F
:1008000084018093850190938601A0938701B09322
:1008100088018091890190918A01A0918B01B0910A
:100820008C010196A11DB11D8093890190938A01CD
:10083000A0938B01B0938C01BF91AF919F918F9149
:100840003F912F910F900FBE0F901F901895862704
:1008500098E027E087FF03C0880F822701C0880F38
:100860009150C1F708951F920F920FB60F92112465
:100870002F933F934F935F936F937F938F939F93A8
:10088000AF93BF93CF93DF93EF93FF93E091D901A1
:10089000F091DA01309709F467C0C685D785888161
:1008A0002585822309F060C0818D928D0197F1F733
:1008B000438D548D68E070E030E081E0DA011197FB
:1008C000F1F79881922311F0382B03C0982F90955F
:1008D0003923880F6150710989F78091D80190E020
:1008E00001968F7099276091D701681749F0A09100
:1008F000D801B0E0AC58BE4F3C938093D80103C000
:1009000087898160878B86898823F1F0CA010197E6
:10091000F1F78881282381E090E0A0E0B0E004C0F6
:10092000880F991FAA1FBB1F2A95D2F74091720109
:100930005091730160E070E0842B952BA62BB72BB0
:100940009093730180937201878D90A1009711F0AD
:100950000197F1F7858D968D0197F1F7A389B489F9
:100960009C918589892B8C93FF91EF91DF91CF9199
:10097000BF91AF919F918F917F916F915F914F91B7
:100980003F912F910F900FBE0F901F901895E091FF
:10099000D901F091DA01E817F90769F4A389B4895C
:1009A0009C918589809589238C931092DA0110920D
:1009B000D90181E0089580E008950F931F93CF93AC
:1009C000C82F0FED11E0F801608F682FC8010E9459
:1009D0007E02F801108E8C2FCF911F910F910895F8
:1009E000EF92FF920F931F93CF93DF931F92CDB798
:1009F000DEB70BED11E084E1E82EF12CF8016191F6
:100A00008F01C70169830E9483146981681719F0F7
:100A1000C7010E948B14FFEFEF1AFF0A88E1E81666
:100A2000F10461F78BED91E00F90DF91CF911F9171
:100A30000F91FF90EF9008952F923F924F925F9207
:100A40006F927F928F929F92AF92BF92CF92DF92DE
:100A5000EF92FF920F931F93CF93DF93CDB7DEB743
:100A60002A970FB6F894DEBF0FBECDBF8C012A01C6
:100A70003B013A87298720E030E0A901C301B20198
:100A80000E94061587FF05C060E070E080E09FEBE4
:100A900004C060E070E080E09FE3E12CF12CA985C8
:100AA000BA85EA16FB0654F420E030E040E251E457
:100AB0000E940B152FEFE21AF20AF1CF9B01AC0155
:100AC000C301B2010E949A146B017C0120E030E066
:100AD000A901C301B2010E94061587FF04C0F7FAFD
:100AE000F094F7F8F094A12CB12CBDECB983ECECA8
:100AF000EA83FCECFB832DE32C8320E030E040E232
:100B000051E469817A818B819C810E946A16962EBC
:100B1000872E382E292EA70196010E940615181639
:100B200044F03FEFA31AB30A99828A823B822C8257
:100B3000E4CFA114B10429F045016FEF861A960A9B
:100B400003C092E0892E912C20E030E0A901C3017E
:100B5000B2010E94061587FF03C07FEF871A970A2C
:100B600089859A850196880E991E1814190444F0F7
:100B700081E090E0DC01A819B909BE83AD8302C011
:100B80001E821D8220E030E0A901C301B2010E9453
:100B9000061587FF07C08DE2F801808388248394BF
:100BA000912C02C0812C912CA114B10449F4F801BC
:100BB000E80DF91D80E3808394012F5F3F4F4901C9
:100BC000212C312CB101680D791D78876F832A148F
:100BD0003B04D1F129813A814B815C81C701B60187
:100BE0000E940B150E947D152B013C016F817885B9
:100BF000600F711F4AE0C2010E944E14B201550CF1
:100C0000880B990B0E94B51529813A814B815C8133
:100C10000E946A169B01AC01C701B6010E9499149B
:100C20006B017C0120E030E040E251E469817A818F
:100C30008B819C810E940B1569837A838B839C83B3
:100C40003FEF231A330ABECF5B0189859A851816B8
:100C5000190644F4F801E60FF71F8EE28083DB01EA
:100C600011965D01812C912CE985FA858E169F06DF
:100C70004CF520E030E040E251E4C701B6010E94AB
:100C80006A162B013C010E947D156B017C01B401A9
:100C90006A0D7B1D600F711F4AE0C6010E944E1451
:100CA000B601DD0C880B990B0E94B5159B01AC01B8
:100CB000C301B2010E9499146B017C01BFEF8B1A32
:100CC0009B0AD2CFCF01F7FF02C080E090E0A80ED0
:100CD000B91E2D813E81232B89F09501F801EA0D83
:100CE000FB1D40E26FEFA61AB60A4193C501821BB5
:100CF000930BAD81BE818A179B07A4F3F801EA0D1F
:100D0000FB1D1082C8012A960FB6F894DEBF0FBEF5
:100D1000CDBFDF91CF911F910F91FF90EF90DF90AA
:100D2000CF90BF90AF909F908F907F906F905F908B
:100D30004F903F902F9008952F923F924F925F9245
:100D40006F927F928F929F92AF92BF92CF92DF92DB
:100D5000EF92FF920F931F93CF93DF93C090AC025B
:100D6000D090AD02E090AE02F090AF020E94D103AD
:100D7000209184022223E9F060E08EE70E94DD04E6
:100D800061E082E90E94DD0461E083E20E94DD040B
:100D900061E0809184020E94DD0480910601882335
:100DA00011F0815003C01092840286E08093060106
:100DB00070C324EFC20E21E0D21EE11CF11C11E031
:100DC000C616D706E806F90608F010E060E08EE7E0
:100DD0000E94DD0461E08FE90E94DD04111170C002
:100DE00080918502A0910202B0910302E82FF0E009
:100DF000EE0FFF1FEC59FD4F20813181232B49F469
:100E00008F5F282F30E02A173B0784F3109285026A
:100E100002C08093850260918502F6E0E0E026E062
:100E200030E0E12C40E050E070E0CA01860F971FEF
:100E30008A179B07A4F5009709F1E394880F991F7F
:100E4000FC01EC5BFD4F80818F718830A1F0813017
:100E500019F4C901039615C0811103C0C901029696
:100E600010C0853019F4C90104960BC0893019F0FF
:100E7000C901019606C0C901059603C0C9012F2FFB
:100E80003E2F4F5F5F4F4031510551F08B3191053F
:100E900014F0EA9404C0F22FE32F9C01C6CFC901DD
:100EA000C82FC06481E08093F7016C2F8FED91E033
:100EB0000E947E0260E08C2F0E942704C82F1DC074
:100EC000E091B202F0E0EE0FFF1FEB5BFD4F80817F
:100ED000C82FCF71829586958770C80FC85F81E053
:100EE0008093F7016C2F8FED91E00E947E0260E00D
:100EF0008C2F0E942704C82FE12CD1E0D093F7015A
:100F000061E18FED91E00E947E026C2F81E10E94F1
:100F10002704C82FD093F70164EA8FED91E00E9477
:100F20007E026C2F84EA0E942704C82FD093F70119
:100F300062E08FED91E00E947E026C2F82E00E94C1
:100F40002704C82FD093F70169E08FED91E00E944C
:100F50007E026C2F89E00E942704C82FD093F701EE
:100F600060E08FED91E00E947E021092F7016C2FFD
:100F700080E00E942704F82E1111EAC1C091850279
:100F80006E2C6C0E2091020230910302C61551F0B6
:100F9000772473947C0E709285020C2F10E0021758
:100FA000130754F08091850290E0821793070CF4A8
:100FB0006CC21092850269C2CC2309F4C7C1E091CA
:100FC000B002F091B1020995C295C07F680131E28B
:100FD000C30ED11CC601880F991FFC01EE5FFD4FA7
:100FE0005F0180818F7190E08530910509F4BEC06A
:100FF000F4F5009709F495C0019709F0A7C1000F17
:10100000111FF801EC59FD4F0190F081E02D008196
:101010001181C160D093F7016C2F8FED91E00E9498
:101020007E026F2D8C2F0E942704C82F1F79F50197
:10103000208122952695277030E0322F2227329585
:10104000330F307E022B132BD093F701602F8FEDDF
:1010500091E00E947E026C2F802F0E942704082FAF
:10106000912F9F79F501C081C07EC92B74C0883053
:10107000910521F0099709F4C2C068C1C860D093F6
:10108000F7016C2F8FED91E00E947E026F2D8C2F67
:101090000E942704C82F000F111FF801EC59FD4FC3
:1010A0000190F081E02D80819181A281B3816C015A
:1010B0007D01FFE9FF22D093F7016C2D8FED91E0C8
:1010C0000E947E026C2F8C2D0E942704C82F2D2C8D
:1010D0003E2C4F2C552447FC5A94D093F701622D97
:1010E0008FED91E00E947E026C2F822D0E942704DA
:1010F000C82F1701552437FC5094452CD093F70185
:10110000622D8FED91E00E947E026C2F822D0E9455
:101110002704182F9F2D9F79F501C081C07EC92B10
:1011200062C0000F111FF801EC59FD4F0190F081D2
:10113000E02D1081D093F7016C2F8FED91E00E948C
:101140007E026F2D8C2F0E942704082F1F79F50136
:10115000C081C07EC12BD093F7016C2F8FED91E041
:101160000E947E021092F701602F47C0C560D093A5
:10117000F7016C2F8FED91E00E947E021092F70133
:101180006F2D8C2F0E942704F82E000F111FF801DD
:10119000EC59FD4F0190F081E02D11810281908189
:1011A000F5012081229526952770213011F0C0E0AD
:1011B00001C0C0E4C92BD093F701602F8FED91E0FF
:1011C0000E947E026F2D802F0E942704082FD0934B
:1011D000F701612F8FED91E00E947E02602F812F39
:1011E0000E942704182FD093F7016C2F8FED91E008
:1011F0000E947E021092F701612F8C2FA4C0C9605B
:10120000D093F7016C2F8FED91E00E947E026F2D3D
:101210008C2F0E942704C82F000F111FF801EC59D2
:10122000FD4F0190F081E02D80809180A280B380FD
:1012300020E030E0A901C501B4010E94651618162E
:101240001CF4C501B40103C0C501B40190580E944B
:1012500084158B0180E090E00E94B3159B01AC01E6
:10126000C501B4010E9499142AE939E949E15FE313
:101270000E946A1620E030E543EC57E40E946A16AB
:101280001B012C0120E030E0A9010E946516181610
:101290001CF4C201B10103C0C201B10190580E9407
:1012A0008415562EF72E812F8170F601EE0FFF1F49
:1012B000EE5FFD4F9081929596959770913011F069
:1012C00090E001C090E2192F182B20E030E0A90136
:1012D000C501B4010E940615881F8827881F8295C2
:1012E000880F880F807C182BD093F701652D8FED28
:1012F00091E00E947E026C2F852D0E942704C82F4A
:10130000D093F7016F2D8FED91E00E947E026C2F3C
:101310008F2D0E942704C82FD093F701602F8FEDE7
:1013200091E00E947E026C2F802F0E942704C82F1C
:10133000D093F701612F8FED91E00E947E02109211
:10134000F7016C2F812F0E942704F82EC72D1ACE8B
:10135000C091B202D093F7016C2F8FED91E00E9403
:101360007E026F2D8C2F0E942704B82E0C2F10E0C8
:101370006801CC0CDD1C96012B5B3D4F4901F90146
:101380002081922F9F71F8E09F9F70011124229578
:1013900026952770E22AD093F7016E2D8FED91E00C
:1013A0000E947E021092F7016B2D8E2D0E94270461
:1013B000F82EF601EC5FFD4FD081AD2EB180772481
:1013C00073942A2D2D1B30E0F40180818F7190E001
:1013D00028173907A4F4F501E4907092F7016E2DF7
:1013E0008FED91E00E947E021092F7016F2D8E2DFD
:1013F0000E942704F82EFFEFAF1ABF0AE2CF000FBA
:10140000111FD801AC5DBD4FDC910D2F11961C91C1
:1014100096012B5B3D4F6901BB24B394202F2D1BFC
:1014200030E0F601808182958695877090E02817DC
:1014300039079CF4F801E490B092F7016E2D8FED1E
:1014400091E00E947E021092F7016F2D8E2D0E9476
:101450002704F82E0F5F1F4FE1CFCF5FC093B2027A
:101460008C2F90E0209102023091030282179307A3
:1014700014F01092B2020E94D1036093AC027093F8
:10148000AD028093AE029093AF0261E08F2D0E9477
:10149000DD04E091B002F091B102099560E08EEFB9
:1014A0000E94DD04CAE8D2E01C2F105E61E0899141
:1014B0000E94DD041C13FACF60E08FEF0E94DD0470
:1014C00081E0DF91CF911F910F91FF90EF90DF901E
:1014D000CF90BF90AF909F908F907F906F905F90D4
:1014E0004F903F902F900895CF92DF92FF920F93ED
:1014F0001F93CF93DF93209102023091030220319A
:101500003105CCF56B0189010F5F1F4FF801EE0F1C
:10151000FF1FEE5FFD4F91838083F901EE0FFF1FE8
:10152000EC5DFD4F71836083F901EE0FFF1FEC59F5
:10153000FD4F11821082220F331FE901CC5BDD4F7A
:1015400018820E944514982F9F718981807EF82E01
:10155000F92AC6010E9445148295880F807E9F2D2E
:101560009F71F92EF82AF982109303020093020268
:101570008FEF800F01C08FEFDF91CF911F910F91FF
:10158000FF90DF90CF900895CF93DF938FED91E0A0
:101590000E94C704CFEDD1E061E08C850E9470030A
:1015A00061E08C85DF91CF910C9440038091FC0128
:1015B0009091FD01892B31F18091D9019091DA014F
:1015C00021E08F3D9207F1F0009711F00E94C704CF
:1015D0008091F6018E7F8093F6011092D8011092CF
:1015E000D7018FED91E09093DA018093D901E091DA
:1015F000F201F091F30190818091F401892B8083B5
:1016000081E0089580E008950F931F93CF93DF93B7
:101610008C01EB010E944514AAE8B2E090E020E2C0
:10162000981740F4A8014F5F5F4FF80104910C93A5
:101630008A0101C02C939F5F1196903189F7CE01EA
:101640000E944514AAE9B2E090E020E2981740F425
:10165000AE014F5F5F4FFE01C491CC93EA0101C020
:101660002C939F5F1196903189F7DF91CF911F9155
:101670000F910895CF93DF93FC0101900020E9F7CB
:101680003197E81B20E030E0F0E2A90148575F4FB6
:101690002E1748F4EA01CE5FDD4FDC01A20FB31F25
:1016A000AC91A88304C0DA01AE5FBD4FFC932F5FFD
:1016B0003F4F2031310549F7FB0101900020E9F748
:1016C0003197E61B80E090E040E29C0128563F4FB6
:1016D0008E1748F4E901CE5FDD4FDB01A80FB91F7B
:1016E0005C91588304C0D901AE5FBD4F4C93019605
:1016F0008031910551F7DF91CF9108958F929F929C
:10170000AF92BF92CF92DF92EF92FF920E94AC0312
:101710004B015C0188ECC82ED12CE12CF12C0E94ED
:10172000AC03DC01CB0188199909AA09BB09883EE1
:101730009340A105B10558F021E0C21AD108E10893
:10174000F10888EE880E83E0981EA11CB11CC1141C
:10175000D104E104F10419F7FF90EF90DF90CF90EE
:10176000BF90AF909F908F90089583E691E0909303
:10177000E0018093DF018FED91E00C94C704CF93DB
:10178000DF93CDB7DEB7E2970FB6F894DEBF0FBE9A
:10179000CDBF789484B5826084BD84B5816084BDFA
:1017A00085B5826085BD85B5816085BD80916E00FF
:1017B000816080936E001092810080918100826030
:1017C000809381008091810081608093810080916D
:1017D00080008160809380008091B100846080935C
:1017E000B1008091B00081608093B00080917A0058
:1017F000846080937A0080917A00826080937A007E
:1018000080917A00816080937A0080917A0080686C
:1018100080937A001092C10061E08DE00E94700315
:1018200061E08DE00E94400361E083E00E9470036C
:1018300060E083E00E9440038091970190919801BD
:10184000909303018093020163EC70E082ED90E0DD
:101850000E94040B8BEB90E09093050280930402AE
:1018600010922502109224021092650210926402D6
:101870001092440287E08093450281E090E09093CB
:1018800003028093020261E083E00E94400361E072
:1018900083E00E94700353E0E52E51E0F52EF7013E
:1018A00084918093EF010FEE10E0F801849190E0B5
:1018B000880F991F88579F4FFC01259134913093D1
:1018C000F1012093F00160E083E00E94700361E089
:1018D00083E00E94400383E08093EB01F701E490F2
:1018E000E092EC01F8010491E02FF0E0EE0FFF1F11
:1018F000EE51FF4F859194919093EE018093ED010D
:1019000081E08093F50185E991E090930102809355
:10191000000229EB30E03093F9012093F80123E92C
:1019200031E03093FB012093FA0146E554E05093F7
:10193000FD014093FC013093FF012093FE012091B3
:1019400068002460209368002DE630E03093F301B6
:101950002093F20128E02093F4010197F1F70E940F
:10196000D60A0E94C40A62E085E00E94700380E00B
:1019700090E00E948314813069F161E080E090E0A2
:101980000E943E0360E081E090E00E943E0360E040
:1019900082E090E00E943E0360E083E090E00E94DD
:1019A0003E0364E684E090E00E943E0388EE93E00C
:1019B0009A838983BE016F5F7F4F8AE090E00E9427
:1019C0000A031A821982BE016F5F7F4F84E190E0A3
:1019D0000E940A0381E090E00E948314A82EB12C9B
:1019E000B092B001A092AF0182E090E00E94831417
:1019F000082F10E01093D6010093D50183E090E00A
:101A00000E948314E82EF12CF0929401E09293014D
:101A100084E090E00E948314C82ED12CD0929201D1
:101A2000C09291018AE090E00E9483148093CF01DC
:101A30008BE090E00E9483148093D001AA94AB289D
:101A400009F47EC0F801EE0FFF1FEE0FFF1FE15DEE
:101A5000FE4F80819181A281B3818093C5019093D3
:101A6000C601A093C701B093C801000F111FF80170
:101A7000E95EFE4F808191819093CA018093C901F4
:101A80009701220F331FF901E15FFE4FE080F180E3
:101A9000F0929001E0928F01F901E95FFE4F008121
:101AA000118110938E0100938D0124E6C21AD10892
:101AB000D0920501C09204012091CF013091D00154
:101AC000285E33403093010120930001B801012EBC
:101AD000000C880B990B0E94B5154B015C01C701E6
:101AE000800F911FBC01990F880B990B0E94B515AF
:101AF0009B01AC01C501B4010E940B156093D1019B
:101B00007093D2018093D3019093D40161EB70E084
:101B100083EB90E00E94740A803138F590E0FC017C
:101B2000EE0FFF1FEC59FD4F29E931E0318320838F
:101B3000880F991FFC01EC5BFD4F88E2808315C084
:101B40008BED882E81E0982E94E1A92EB12CC50151
:101B50000E948314F40181934F01FFEFAF1ABF0A73
:101B600028E1A216B10499F76DCF64EA70E088EA23
:101B700090E00E94740A803188F490E0FC01EE0F3E
:101B8000FF1FEC59FD4F2BED31E031832083880F8F
:101B9000991FFC01EC5BFD4F88E080836AE970E0EF
:101BA0008CE990E00E94740A803188F490E0FC0196
:101BB000EE0FFF1FEC59FD4F2DE931E031832083FB
:101BC000880F991FFC01EC5BFD4F88E4808362E97C
:101BD00070E084E990E00E94740A803188F490E01B
:101BE000FC01EE0FFF1FEC59FD4F2DEB31E031836F
:101BF0002083880F991FFC01EC5BFD4F88E08083F8
:101C00000E949C0660E08DE00E94400301E010E02D
:101C1000212C312C8091D5019091D601892B09F48A
:101C2000C6C180E10E940302BC01990F880B990B89
:101C30000E94B51520E030EC4FE754E40E940B15EC
:101C400020E030E040EA50E40E946A162091D10181
:101C50003091D2014091D3015091D4010E940B15D3
:101C60006B017C016091CF017091D001072E000CB7
:101C7000880B990B0E94B51520E030E04AE754E448
:101C80000E940B159B01AC01C701B6010E946A16A8
:101C90006B017C016093CB017093CC018093CD01EB
:101CA0009093CE0181E10E940302BC01990F880B41
:101CB000990B0E94B51520E030EC4FE754E40E94E8
:101CC0000B1520E030E94CE955E40E946A164B01FF
:101CD0005C016091C9017091CA01072E000C880B4C
:101CE000990B0E94B5159B01AC01C501B4010E947E
:101CF00099144B015C016091040170910501072E5C
:101D0000000C880B990B0E94B5159B01AC01C50115
:101D1000B4010E949A142091C5013091C6014091EE
:101D2000C7015091C8010E940B154B015C0120E0D6
:101D300030E0A9010E94061587FD09C08092C1010B
:101D40009092C201A092C301B092C40108C0109247
:101D5000C1011092C2011092C3011092C40180907F
:101D6000C1019090C201A090C301B090C401A7012D
:101D70009601C501B4010E946A160E947D15609308
:101D8000BD017093BE018093BF019093C0010E947A
:101D9000D1034090B9015090BA016090BB0170909E
:101DA000BC0173016201E4EFCE0EE1E0DE1EE11C36
:101DB000F11CC616D706E806F90608F059C00E94BD
:101DC000D1036B017C01C418D508E608F708C0925E
:101DD000B101D092B201E092B301F092B40120E0DF
:101DE00030E04AE754E4C501B4010E946A162B01B1
:101DF0003C01C701B6010E94B31520E03AEB4BE568
:101E00005AE40E940B159B01AC01C301B2010E9470
:101E10006A1620E030E0A9010E949A146093B5018F
:101E20007093B6018093B7019093B8010E947D151D
:101E3000C090DB01D090DC01E090DD01F090DE018C
:101E4000DC01CB018C0D9D1DAE1DBF1D8093DB0100
:101E50009093DC01A093DD01B093DE010E94D103D9
:101E60006093B9017093BA018093BB019093BC0158
:101E7000E090AF01F090B001F1E0EF16F10419F538
:101E800020E030E040E050E4C501B4010E94651656
:101E90001816CCF4F092AE01E092AD011092AC01B4
:101EA0001092AB010E94D103DC01CB018856954C06
:101EB000AF4FBF4F8093A7019093A801A093A901B2
:101EC000B093AA0104C01092AE011092AD010E941D
:101ED000D1036093A3017093A4018093A501909313
:101EE000A60121E0E216F104F9F42091AD01309150
:101EF000AE01232BC9F42091AB013091AC01232B0F
:101F000099F48090A7019090A801A090A901B090A9
:101F1000AA0186169706A806B90634F40E94F004B2
:101F2000F092AC01E092AB018091AF019091B001D1
:101F3000019709F05CC0E9E1F1E08491E5E0F1E0AE
:101F4000F490E1EFF0E0E490EE20A1F081110E9426
:101F5000DA01EE2DF0E0EE0FFF1FEE51FF4FA591DD
:101F6000B4918C91F82231E020E009F430E0832F25
:101F7000922F02C080E090E09093A2018093A10193
:101F80002091AD013091AE01232B89F5892B79F594
:101F90001092DB011092DC011092DD011092DE0143
:101FA0000E94F0041093AC010093AB0120C010928A
:101FB000CB011092CC011092CD011092CE01109263
:101FC000C1011092C2011092C3011092C40110927B
:101FD000BD011092BE011092BF011092C00110927B
:101FE000DB011092DC011092DD011092DE0120E095
:101FF00030E048EC52E46091CB017091CC018091CB
:10200000CD019091CE010E946A160E947D156093C9
:102010009D0170939E0180939F019093A00120E009
:1020200030E040E251E46091C1017091C2018091C1
:10203000C3019091C4010E946A160E947D156093AD
:10204000990170939A0180939B0190939C01E09178
:102050009701F0919801EA30F10521F01092960174
:102060001092950180910201909103018E179F07B4
:1020700021F0F0930301E0930201EB30F10508F049
:1020800023C2EC5CFF4F0C94EB1667EE72E086EF18
:1020900092E018C21A8A198261EE72E0CE0142966D
:1020A0000E943A141BA24091C1015091C20160915B
:1020B000C3017091C40121E030E0CE0183960E94FB
:1020C0001C05BE016D5D7F4FCE0142960E940A172E
:1020D0006FED72E0CE0142960E943A1469ED72E013
:1020E000CE0101960E943A141BA26091DB0170910F
:1020F000DC018091DD019091DE010E94B515AB01FC
:10210000BC0120E030E0CE0183960E941C05BE0198
:102110006D5D7F4FCE0101960E940A1765ED72E05A
:10212000C1C11A8A19826BEC72E0CE0142960E94FC
:102130003A141BA24091CB015091CC016091CD018A
:102140007091CE0122E030E0CE0183960E941C0502
:10215000BE016D5D7F4FCE0142960E940A1769EC69
:1021600072E0CE0142960E943A146FEB72E0CE010B
:1021700001960E943A141BA26091BD017091BE01AC
:102180008091BF019091C0010E94B515AB01BC01C7
:1021900020E030E0CE0183960E941C05BE016D5DFB
:1021A0007F4FCE0101960E940A176DEB72E07AC153
:1021B0001A8A19826CEA72E0CE0142960E943A14A1
:1021C0008091D5019091D601892B31F46CE972E0B0
:1021D000CE0101960E943A148091D5019091D601CA
:1021E000019731F460E972E0CE0101960E943A1441
:1021F0008091D5019091D601029731F464E872E0A4
:10220000CE0101960E943A148091D5019091D60199
:10221000039731F468E772E0CE0101960E943A1408
:102220008091D5019091D601049731F46BE672E06C
:10223000CE0101960E943A148091D5019091D60169
:10224000059731F46DE572E0CE0101960E943A14D3
:102250008091D5019091D601069731F46FE472E038
:10226000CE0101960E943A148091D5019091D60139
:10227000079731F461E472E0CE0101960E943A14AE
:102280008091D5019091D601089731F464E372E012
:10229000CE0101960E943A148091D5019091D60109
:1022A000099731F466E272E0CE0101960E943A1479
:1022B0008091D5019091D6010A9731F468E172E0DE
:1022C000CE0101960E943A148091D5019091D601D9
:1022D0000B9709F0EBC06AE072E0E4C01A8A198239
:1022E00069EF71E0CE0142960E943A148091930109
:1022F00090919401892B31F46AEE71E0CE01019640
:102300000E943A148091930190919401019731F4C5
:102310006CED71E0CE0101960E943A148091930118
:1023200090919401029731F46EEC71E0CE01019628
:102330000E943A148091930190919401039709F0BF
:10234000B5C06DEB71E0AEC01A8A198263EB71E023
:10235000CE0142960E943A141BA24091C1015091B5
:10236000C2016091C3017091C40122E030E0CE014E
:1023700083960E941C05BE016D5D7F4FCE01429683
:102380000E940A1761EB71E0CE0142960E943A1456
:1023900063EA71E0CE0101960E943A141BA260919B
:1023A00091017091920164567109709305016093D7
:1023B000040135C01A8A198269E971E0CE0142969A
:1023C0000E943A141BA24091CB015091CC01609124
:1023D000CD017091CE0122E030E0CE0183960E94C3
:1023E0001C05BE016D5D7F4FCE0142960E940A170B
:1023F00067E971E0CE0142960E943A1469E871E003
:10240000CE0101960E943A141BA26091CF017091F7
:10241000D001685E73407093010160930001072E44
:10242000000C880B990B0E94B515AB01BC0120E094
:1024300030E0CE0183960E941C05BE016D5D7F4F8A
:10244000CE0101960E940A1731C01A8A19826DE7DF
:1024500071E0CE0142960E943A148091AF019091B2
:10246000B001892B31F46AE771E0CE0142960E94F7
:102470003A148091AF019091B001019731F466E771
:1024800071E0CE0142960E943A1465E671E00AC0FE
:102490001A8A198267E571E0CE0142960E943A14C9
:1024A00067E471E0CE0101960E943A14BE016F5FAD
:1024B0007F4FCE0142960E943A0B06C068E271E05F
:1024C00087E391E00E94040B8FED91E00E94C70426
:1024D0000E94C40A0E949C0660E08091EB010E9469
:1024E000700361E08091EB010E9440030E94D60AD4
:1024F0000E94D60A0E94D1034B015C01F4E68F0EC4
:10250000911CA11CB11CE12CF12C0E94D103681577
:1025100079058A059B0580F58FED91E00E944002C8
:102520001816190694F78FED91E00E9440021816D4
:10253000190614F0712C1AC08FED91E00E94570219
:10254000782E8091AB02871142C1C0908602D09054
:102550008702E0908802F09089020E94D103C6169B
:10256000D706E806F90608F432C1E4CFE72CF12CCF
:10257000E114F10451F244C120EFE216F10409F430
:102580001EC1E114F10409F41AC180EBE816F1044C
:1025900009F4B0C05CF4E0E7EE16F10409F44AC0B7
:1025A000F0E9EF16F10409F4FBC009C120EDE216D1
:1025B000F10409F457C080EEE816F10409F0FFC0F9
:1025C00080919701909198018A30910509F4F7C0A4
:1025D0008930910569F561E080E090E00E943E035A
:1025E0006091AF0181E090E00E943E036091D501CF
:1025F00082E090E00E943E036091930183E090E0CE
:102600000E943E036091910184E090E00E943E03AD
:102610006FEC71E08AE090E00E940A031A8219824E
:10262000BE016F5F7F4F84E190E00E940A03C3C048
:10263000019613C08091970190919801833691057E
:1026400021F4109298011092970180919701909136
:102650009801009709F4B3C0019790939801809373
:102660009701ADC0809197019091980183309105B9
:10267000C1F48091D5019091D6018C3091052CF454
:1026800001969093D6018093D5018091D5019091C8
:10269000D6010C9709F093C01092D6011092D50183
:1026A0008EC08430910509F449C08530910531F41C
:1026B000809191019091920101965FC086309105C1
:1026C00031F48091CF019091D001019664C00797B9
:1026D00009F075C08091AF019091B001892B29F468
:1026E0001093B0010093AF016AC01092B001109234
:1026F000AF0165C080919701909198018330910559
:10270000D1F48091D5019091D601892B31F48CE0E0
:1027100090E09093D6018093D5018091D50190915E
:10272000D601181619060CF04AC001979093D601ED
:102730008093D50144C084309105B9F48091930110
:1027400090919401843091052CF40196909394011A
:10275000809393018091930190919401049779F56E
:1027600010929401109293012AC08530910551F482
:1027700080919101909192010197909392018093A1
:1027800091011DC08630910509F0A1CF8091CF0144
:102790009091D00101979093D0018093CF010FC009
:1027A0008091970190919801089749F460E080E04A
:1027B00090E00E943E030E947E0BF101099580E0AB
:1027C00090E0892B09F426CA0E9400001FCA0E94CB
:1027D000D103DC01CB0180579E4FAF4FBF4F809399
:1027E000860290938702A0938802B0938902709228
:1027F000AB0290EF7912BACE80EFE82EF12C85CEA5
:10280000E0EFEE16F10409F0C0CED9CFEFEDF1E024
:102810001382128288EE93E0A0E0B0E08483958377
:10282000A683B78383E691E091838083A6EFB1E02E
:102830008C918E7F8C93128E118E148E138E168E29
:10284000158E12A211A21092860210928702109287
:102850008802109289021092840210920302109250
:102860000202109285028AE192E09093B102809375
:10287000B0020895FB01DC010D900020E9F71197EB
:1028800005900D920020E1F70895FC0105900020CD
:10289000E9F7809590958E0F9F1F0895BB274A30CA
:1028A00031F4992322F4BDE2909581959F4F0C94C9
:1028B0005A14BB27FB015527AA27880F991FAA1F67
:1028C000A41710F0A41B83955051B9F7A05DAA334B
:1028D00008F0A95DA193009779F7B111B193119216
:1028E000CB010C947314DC01FC01672F71917723E9
:1028F000E1F7329704C07C916D9370836291AE17BB
:10290000BF07C8F30895F999FECF92BD81BDF89A2B
:10291000992780B50895262FF999FECF1FBA92BD49
:1029200081BD20BD0FB6F894FA9AF99A0FBE0196B0
:1029300008955058BB27AA270E94B1140C942B1657
:102940000E941D1638F00E94241620F039F49F3F93
:1029500019F426F40C941A160EF4E095E7FB0C9487
:102960001416E92F0E943C1658F3BA176207730732
:102970008407950720F079F4A6F50C945E160EF402
:10298000E0950B2EBA2FA02D0B01B90190010C017F
:10299000CA01A0011124FF27591B99F0593F50F497
:1029A000503E68F11A16F040A22F232F342F4427EF
:1029B000585FF3CF469537952795A795F0405395E7
:1029C000C9F77EF41F16BA0B620B730B840BBAF0B7
:1029D0009150A1F0FF0FBB1F661F771F881FC2F722
:1029E0000EC0BA0F621F731F841F48F48795779536
:1029F0006795B795F7959E3F08F0B0CF9395880FF0
:102A000008F09927EE0F9795879508950E94F01585
:102A100008F481E008950E941F150C942B160E9463
:102A2000241658F00E941D1640F029F45F3F29F04B
:102A30000C94141651110C945F160C941A160E94E3
:102A40003C1668F39923B1F3552391F3951B550B6D
:102A5000BB27AA2762177307840738F09F5F5F4F71
:102A6000220F331F441FAA1FA9F335D00E2E3AF0B0
:102A7000E0E832D091505040E695001CCAF72BD0C8
:102A8000FE2F29D0660F771F881FBB1F2617370719
:102A90004807AB07B0E809F0BB0B802DBF01FF274B
:102AA00093585F4F3AF09E3F510578F00C941416FE
:102AB0000C945F165F3FE4F3983ED4F386957795C8
:102AC0006795B795F7959F5FC9F7880F911D969504
:102AD000879597F90895E1E0660F771F881FBB1F60
:102AE000621773078407BA0720F0621B730B840B0D
:102AF000BA0BEE1F88F7E09508950E94841568943C
:102B0000B1110C945F1608950E94441688F09F57E7
:102B100098F0B92F9927B751B0F0E1F0660F771F01
:102B2000881F991F1AF0BA95C9F714C0B13091F0F7
:102B30000E945E16B1E008950C945E16672F782F00
:102B40008827B85F39F0B93FCCF3869577956795BC
:102B5000B395D9F73EF490958095709561957F4F28
:102B60008F4F9F4F0895E89409C097FB3EF49095CE
:102B70008095709561957F4F8F4F9F4F9923A9F056
:102B8000F92F96E9BB279395F695879577956795E5
:102B9000B795F111F8CFFAF4BB0F11F460FF1BC029
:102BA0006F5F7F4F8F4F9F4F16C0882311F096E9BC
:102BB00011C0772321F09EE8872F762F05C066236A
:102BC00071F096E8862F70E060E02AF09A95660F23
:102BD000771F881FDAF7880F9695879597F90895DC
:102BE000990F0008550FAA0BE0E8FEEF161617061E
:102BF000E807F907C0F012161306E407F50798F086
:102C0000621B730B840B950B39F40A2661F0232B9E
:102C1000242B252B21F408950A2609F4A140A6951A
:102C20008FEF811D811D089597F99F6780E870E0FF
:102C300060E008959FEF80EC089500240A94161632
:102C4000170618060906089500240A94121613069A
:102C5000140605060895092E0394000C11F4882328
:102C600052F0BB0F40F4BF2B11F460FF04C06F5F44
:102C70007F4F8F4F9F4F089557FD9058440F551F1A
:102C800059F05F3F71F04795880F97FB991F61F0EE
:102C90009F3F79F087950895121613061406551F65
:102CA000F2CF4695F1DF08C0161617061806991FD1
:102CB000F1CF86957105610508940895E894BB27C6
:102CC00066277727CB0197F908950E94F01508F43D
:102CD0008FEF08950E947D160C942B160E941D16EE
:102CE00038F00E94241620F0952311F00C9414164D
:102CF0000C941A1611240C945F160E943C1670F363
:102D0000959FC1F3950F50E0551F629FF001729F90
:102D1000BB27F00DB11D639FAA27F00DB11DAA1F9F
:102D2000649F6627B00DA11D661F829F2227B00DEC
:102D3000A11D621F739FB00DA11D621F839FA00D77
:102D4000611D221F749F3327A00D611D231F849FC7
:102D5000600D211D822F762F6A2F11249F5750401E
:102D60009AF0F1F088234AF0EE0FFF1FBB1F661F99
:102D7000771F881F91505040A9F79E3F510580F062
:102D80000C9414160C945F165F3FE4F3983ED4F352
:102D9000869577956795B795F795E7959F5FC1F706
:102DA000FE2B880F911D9695879597F9089597FBAF
:102DB000072E16F4009407D077FD09D00E94F11673
:102DC00007FC05D03EF4909581959F4F089570952E
:102DD00061957F4F0895EE0FFF1F0590F491E02D50
:102DE0000994AA1BBB1B51E107C0AA1FBB1FA61752
:102DF000B70710F0A61BB70B881F991F5A95A9F7A4
:102E000080959095BC01CD01089581E090E0F89403
:102E10000C941517FB01DC010D900020E9F71197C8
:102E200001900D920020E1F7089511E0C4E8D1E08F
:102E300004C0FE010E94EB162196C538D107C9F7E0
:042E4000F894FFCF34
:102E440064000100640006E803D007E803D007F833
:102E54002A1027D007D007C409C409C409C409C467
:102E640009C409C409C40958025802580258020086
:102E740000C842000039430000C8420000844200F8
:102E84000020420000A041CDCC544100002041006C
:102E9400007042000020429A99D5410000A04100F0
:102EA4000000007E02AF0179023F02400257022770
:022EB40002001A
:00000001FF
