:100000000C947A010C94A2010C94A2010C94F30AB2
:100010000C94F30A0C94F30A0C94A2010C94A20120
:100020000C94A2010C94A2010C94A2010C94A201C4
:100030000C94A2010C94A2010C94A2010C94A201B4
:100040000C94A90A0C94A2010C94A2010C94A20194
:100050000C94A2010C94A2010C94A2010C94A20194
:100060000C94A2010C94A2010000000024002700BF
:100070002A0000000000250028002B005700506FC8
:10008000776572005600566F6C74616765006D414C
:10009000680043617061636974790041004375725F
:1000A00072656E740052435420416D700020416DA2
:1000B0007053656E736F7220312E3400205243549A
:1000C000204A65746920546F6F6C73000000000053
:1000D000230026002900040404040404040402028A
:1000E00002020202030303030303010204081020B7
:1000F00040800102040810200102040810200000C2
:1001000000080002010000030407000000000000D6
:10011000000020416D7053656E736F7220312E3474
:100120000020524354204A65746920546F6F6C73E9
:1001300000527374205570446E2053617665203EE2
:10014000005265736574206F7220536176650043B9
:1001500068616E676520446E204E657874203E00AD
:10016000596573004E6F004469672E52657365745C
:100170003A200043616C6962726174696F6E3A2063
:10018000005600566F6C746167653A200043616CDD
:100190006962726174696F6E3A2000410043757242
:1001A00072656E743A200020204D61782E20325303
:1001B0002F5278203130560020204D61782E203388
:1001C00053203135560020204D61782E20365320A3
:1001D0003330560020204D61782E203134532036A4
:1001E000305600536574204D61782E20566F6C7424
:1001F0006167650020204143533735382D32303058
:10020000550020204143533735382D3135305500C6
:1002100020204143533735382D31303055002020D0
:100220004143533735382D35305500202041435355
:100230003735382D32303042002020414353373596
:10024000382D313530420020204143533735382D89
:10025000313030420020204143533735382D35307E
:10026000420020204143533731322D3330002020CB
:100270004143533731322D32300020204143533730
:1002800031322D3035002053656E736F72204E6F02
:100290007420536574005365742053656E736F72D8
:1002A00020547970653A005700506F7765723A2094
:1002B0002020005600566F6C746167653A20006D0F
:1002C0004168004361703A200041004375723A2052
:1002D0000020416D7053656E736F7220312E3400B3
:1002E00020524354204A65746920546F6F6C730028
:1002F000850B4B1411241FBECFEFD8E0DEBFCDBF5E
:1003000011E0A0E0B1E0E0E7FEE202C005900D924E
:10031000A037B107D9F722E0A0E7B1E001C01D92F4
:10032000A53AB207E1F711E0C9E7D1E004C021978F
:10033000FE010E940617C837D107C9F70E94B90B02
:100340000C942B170C9400000895AF92BF92CF929B
:10035000DF92EF92FF920F931F93CF93DF936C0185
:100360007B018B01040F151FEB015E01AE18BF0866
:10037000C017D10759F06991D601ED91FC91019018
:10038000F081E02DC6010995892B79F7C501DF9130
:10039000CF911F910F91FF90EF90DF90CF90BF9082
:1003A000AF900895833081F028F4813099F0823045
:1003B000A9F008958730A9F08830C9F08430B1F4ED
:1003C000809180008F7D03C0809180008F77809323
:1003D0008000089584B58F7784BD089584B58F7D9E
:1003E000FBCF8091B0008F778093B000089580910B
:1003F000B0008F7DF9CF1F93CF93DF93282F30E08C
:10040000F901E250FF4F8491F901E651FF4FD49179
:10041000F901EA52FF4FC491CC23A9F0162F8111A4
:100420000E94D201EC2FF0E0EE0FFF1FEE58FF4FBD
:10043000A591B4918FB7F894EC91111108C0D095A3
:10044000DE23DC938FBFDF91CF911F910895DE2BC8
:10045000F8CFCF93DF9390E0FC01E651FF4F24915A
:100460008A529F4FFC0184918823C9F090E0880F45
:10047000991FFC01E859FF4FA591B491FC01EE587A
:10048000FF4FC591D49161110DC09FB7F8948C9125
:10049000209582238C938881282328839FBFDF9116
:1004A000CF910895623051F49FB7F8943C91822F18
:1004B000809583238C93E8812E2BEFCF8FB7F89410
:1004C000EC912E2B2C938FBFEACF8E5080648093BB
:1004D0007C0080917A00806480937A0080917A0019
:1004E00086FDFCCF809178009091790008953FB708
:1004F000F8948091870190918801A0918901B09131
:100500008A0126B5A89B05C02F3F19F00196A11DB1
:10051000B11D3FBFBA2FA92F982F8827BC01CD014D
:10052000620F711D811D911D42E0660F771F881FAC
:10053000991F4A95D1F708958F929F92AF92BF92DB
:10054000CF92DF92EF92FF924B015C010E94770203
:100550006B017C010E9477026C197D098E099F094D
:10056000683E734081059105A8F321E0821A910845
:10057000A108B10888EEC80E83E0D81EE11CF11C6A
:1005800081149104A104B10429F7FF90EF90DF904A
:10059000CF90BF90AF909F908F9008952FB7F89411
:1005A0006091830170918401809185019091860111
:1005B0002FBF0895862798E027E087FF05C0880FA2
:1005C00082279150D1F70895880FFBCFDC01519617
:1005D000ED91FC915297908150968C918095892352
:1005E000808308952091CF013091D00128173907D9
:1005F00071F49091CD018091CE01981741F0E09176
:10060000CD01F0E0EE58FE4F808190E008958FEF2D
:100610009FEF089508952091CF013091D0012817C0
:10062000390769F48091CE012091CD0190E0409688
:10063000821B910960E170E00E94F216089590E03B
:1006400080E008952091CF013091D001281739071B
:10065000B9F49091CD018091CE01981789F0E09185
:10066000CD01F0E0EE58FE4F80812091CD0130E0C9
:100670002F5F3F4F2F7033272093CD0190E00895D7
:100680008FEF9FEF0895E091CF01F091D001E8172F
:10069000F90769F4A389B4899C9185898095892398
:1006A0008C931092D0011092CF0181E0089580E0E8
:1006B0000895CF93DF9382ED91E00E944303C2ED52
:1006C000D1E061E08C850E94290261E08C85DF9198
:1006D000CF910C94FB018091EF019091F001892B57
:1006E00031F18091CF019091D00121E0823D9207BC
:1006F000F1F0009711F00E9443038091E9018E7F91
:100700008093E9011092CE011092CD0182ED91E02B
:100710009093D0018093CF01E091E501F091E60143
:1007200080819091E701892B808381E0089580E0AA
:10073000089590E080E00895CF92DF92EF92FF92CB
:100740000F931F93CF93DF93EC0189A19AA1892B7B
:1007500079F481E090E09B838A8390E080E0DF91F0
:10076000CF911F910F91FF90EF90DF90CF90089560
:100770000FB7F8948F8D98A110E0892B89F028E0AD
:1007800030E080E091E0462F492309F08F5F990F18
:1007900021503109C1F7988D91118F5F182F109555
:1007A000F62ECE010E94E60289A19AA10197F1F7E7
:1007B00088E0C82ED12CEE24E3948F2D8E2109F4ED
:1007C0003DC0E989FA8980819889892B808389A134
:1007D0009AA10197F1F7EE0C81E0C81AD10869F7E8
:1007E0008E89882369F0888D882361F1E989FA89E7
:1007F00080819889892B808389A19AA10197F1F73B
:100800008F8D98A1892B61F010FF20C0E989FA89AA
:1008100080819889892B80838F8D98A10197F1F72A
:10082000E989FA8980819889892B80830FBF8D8D12
:100830009E8D0197F1F781E090E091CFCE010E946B
:10084000E602C5CFCE010E94E602D6CFCE010E94BD
:10085000E602E2CF0F931F93CF93C82F02ED11E072
:10086000F801608F682FC8010E949C03F801108E68
:100870008C2FCF911F910F9108953F924F925F92CD
:100880006F927F928F929F92AF92BF92CF92DF92A0
:10089000EF92FF920F931F93CF93DF9300D000D07E
:1008A0001F92CDB7DEB7C0909F02D090A002E0901B
:1008B000A102F090A2020E94CE024B015C01809145
:1008C0007702882309F454C060E08EE70E942A046E
:1008D00061E082E90E942A0461E083E20E942A0426
:1008E00061E0809177020E942A04809104018823AC
:1008F000D9F1815080930401E091A302F091A40208
:10090000099560E08EEF0E942A042DE732E03A83D9
:1009100029830DE912E061E0A981BA818D91BA8342
:10092000A9830E942A04E981FA810E171F0799F70B
:1009300060E08FEF0E942A0481E00F900F900F90EB
:100940000F900F90DF91CF911F910F91FF90EF903B
:10095000DF90CF90BF90AF909F908F907F906F90DF
:100960005F904F903F9008951092770286E0C2CF3B
:1009700024EFC20E21E0D21EE11CF11C60E08EE7E4
:100980000E942A0461E08FE90E942A04C814D90455
:10099000EA04FB0408F4FCC080917802E091F501C0
:1009A000F091F601A82FB0E0AA0FBB1FA95ABD4FC6
:1009B0002D913C91232B21F1809378026091780254
:1009C0001D82B6E0A0E026E030E050E040E070E0BC
:1009D000CA01860F971F8E179F07FCF4009709F432
:1009E000D3C0AD81AF5FAD83880F991FDC01A95CD7
:1009F000BD4F8C918F718830B1F4C901059618C034
:100A00008F5F8E171F0674F210927802D7CF8B314A
:100A100091052CF08D8181508D83C9010EC0B22FBC
:100A2000A32F9C01D5CF813009F09EC0C901039648
:100A30004F5F5F4F4031510551F7B82FB064B98314
:100A400081E08093EA016B2F82ED91E00E949C038C
:100A500060E089810E94DA0289837724739470921E
:100A6000EA0161E182ED91E00E949C03698181E1EC
:100A70000E94DA0289837092EA0164EA82ED91E0D1
:100A80000E949C03698184EA0E94DA028983709241
:100A9000EA0162E082ED91E00E949C03698182E0BC
:100AA0000E94DA0289837092EA0169E082ED91E0A6
:100AB0000E949C03698189E00E94DA028983709216
:100AC000EA0160E082ED91E00E949C031092EA014D
:100AD000698180E00E94DA02082FC814D904EA0470
:100AE000FB0408F44BC210917802ED80E10EFF2464
:100AF000F3948091F5019091F601E11609F432C268
:100B000033243394310E30927802212F30E03A832F
:100B10002983281739070CF025C2112319F1E09118
:100B2000A302F091A40209951295107FC980DA8082
:100B300031E2C30ED11CC601880F991FDC01AB50F6
:100B4000BE4F5D018C918F71882EB5E08B1709F433
:100B5000B7C1B817E0F1882309F444C1E1E08E176A
:100B600009F460C1132DC5CF811103C0C9010296DC
:100B70005FCF853019F4C90104965ACF893009F442
:100B80003CCFC901019654CFC9012B2F3A2F50CF2A
:100B9000E091D101F0E0EE0FFF1FE85CFD4F808196
:100BA000E82FEF71829586958770E80FE85FE983FB
:100BB00081E08093EA016E2F82ED91E00E949C0318
:100BC00060E089810E94DA0289831D8246CFF8E0C5
:100BD0008F1709F4A4C029E08213C4CF1960F092E2
:100BE000EA01612F82ED91E00E949C03602F812F2A
:100BF0000E94DA02182FE981FA81EE0FFF1FE95AED
:100C0000FD4FFA83E9830190F081E02D408051800F
:100C10006280738020E030E0A901C301B2010E942C
:100C2000801618160CF092C1C301B2010E949F15E4
:100C30007A83698329813A81B90190E080E00E943A
:100C4000CE159B01AC01C301B2010E94B4142AE984
:100C500039E949E15FE30E94851620E030E543EC85
:100C600057E40E9485164B015C0120E030E0A901A9
:100C70000E94801618160CF06DC1C501B4010E94C7
:100C80009F15B62E072F8A818170F601EE0FFF1F88
:100C9000EB50FE4F9081929596959770913009F0A8
:100CA0005DC190E2D82ED92A20E030E0A901C3012D
:100CB000B2010E94211587FF53C180E4D82AF09227
:100CC000EA016B2D82ED91E00E949C03612F8B2D38
:100CD0000E94DA02182FF092EA01602F82ED91E073
:100CE0000E949C03612F802F0E94DA02182FF0923D
:100CF000EA01698182ED91E00E949C03612F898164
:100D00000E94DA028983F092EA016D2D82ED91E072
:100D10000E949C031092EA0169818D2DCDC018605C
:100D2000F092EA01612F82ED91E00E949C03602F16
:100D3000812F0E94DA02182F89819A81880F991FCA
:100D4000895A9D4FDC01ED91FC9140805180628079
:100D50007380BFE97B22F092EA01642D82ED91E07D
:100D60000E949C03612F842D0E94DA028D83BB2791
:100D700077FCBA95A72D962D852D89839A83AB8311
:100D8000BC83F092EA01698182ED91E00E949C03AC
:100D90006D8189810E94DA028D83C301BB2797FD93
:100DA000B095AB2F89839A83AB83BC83F092EA0121
:100DB000698182ED91E00E949C036D8189810E948E
:100DC000DA028D83D501BC91B07EB729B983F09248
:100DD000EA016B2F82ED91E00E949C031092EA01E0
:100DE0006D8169C0E981FA81EE0FFF1FE95AFD4F5D
:100DF000FA83E9830190F081E02D20812983F0922C
:100E0000EA01612F82ED91E00E949C03602F812F07
:100E10000E94DA028D8389818F79D501BC91B07EE1
:100E2000B82BD4CFE981FA81EE0FFF1FE95AFD4FAD
:100E30000190F081E02D208131813A832983116076
:100E40008093EA01612F82ED91E00E949C03602F64
:100E5000812F0E94DA02182FD5018C9182958695F8
:100E6000877090E0982F88279295990F907EE9815E
:100E7000FA81FF79E82BF92BFA83E9838092EA0162
:100E8000698182ED91E00E949C03612F89810E941B
:100E9000DA02182F8A818F79D501BC91B07EB82BE8
:100EA000B9838092EA016B2F82ED91E00E949C034E
:100EB0001092EA01612F89810E94DA02082F52CE36
:100EC0001560F092EA01612F82ED91E00E949C038F
:100ED000602F812F0E94DA02182FE981FA81EE0F2C
:100EE000FF1FE95AFD4FFA83E9830190F081E02D5D
:100EF0002081298331813D830281D5018C918295A6
:100F000086958770813001F580E4B981B82BB9836B
:100F1000F092EA01602F82ED91E00E949C03612F24
:100F2000802F0E94DA02182FF092EA016D8182ED83
:100F300091E00E949C03612F8D810E94DA028D83D3
:100F4000F092EA01698146CF80E0DFCFC301B201B0
:100F500090586CCEC501B401905891CE90E0A2CECD
:100F600080E0ACCE209178022817190614F0109278
:100F7000780261E0802F0E942A04BECC1091D1013A
:100F80007092EA01612F82ED91E00E949C03602F34
:100F9000812F0E94DA02082F812F90E09A838983A3
:100FA0007C01EE0CFF1CD701A85CBD4F5D018C914C
:100FB000982F9F71B8E09B9F6001112482958695C0
:100FC0008770C82A7092EA016C2D82ED91E00E9430
:100FD0009C031092EA01602F8C2D0E94DA02082FE8
:100FE000E981FA81EE0FFF1FE950FE4F808091806A
:100FF000D12CC12C66246394F50180818F71C816B1
:10100000B0F4F401EC0DFD1D74906092EA01672DBF
:1010100082ED91E00E949C031092EA01602F872DDF
:101020000E94DA02082FFFEFCF1ADF0AE5CF2981ED
:101030003A81220F331F295E3D4FD901CD90DC90BC
:101040001A821982F701E85CFD4F5F01EE24E394F8
:10105000D5018C91829586958770B981B817C8F4AF
:10106000E981FA81EC0DFD1DF490E092EA016F2D0B
:1010700082ED91E00E949C031092EA01602F8F2D77
:101080000E94DA02082FE981FA813196FA83E98316
:10109000DFCF1F5F1093D1018091F5019091F60190
:1010A0001817190614F01092D1010E94CE02609315
:1010B0009F027093A0028093A1029093A20259CF45
:1010C0002F923F924F925F926F927F928F929F9258
:1010D000AF92BF92CF92DF92EF92FF920F931F9346
:1010E000CF93DF93CDB7DEB72C970FB6F894DEBF62
:1010F0000FBECDBF8C012A013B013C872B8720E02E
:1011000030E0A901CB01B2010E9421152B853C855D
:1011100087FD1EC160E070E080E09FE3232B81F03B
:1011200020E030E040E251E40E942615EB85FC858A
:10113000319731F020E030E040E251E40E94261582
:101140009B01AC01C301B2010E94B5146B017C018B
:1011500020E030E0A901C301B2010E94211587FF00
:1011600004C0F7FAF094F7F8F094B12CA12CFDEC40
:10117000F9832CEC2B833CEC3D838DE38E8320E0C4
:1011800030E040E251E469817B818D819E810E9443
:101190008516962E872E382E292EA70196010E949D
:1011A0002115181644F09FEFA91AB90A99828B826B
:1011B0003D822E82E4CF20E030E0A901C301B201DC
:1011C0000E942115312C212C87FF06C08DE2F801E9
:1011D000808322242394312C9801220D331D3887DB
:1011E0002F83A114B10409F04DC03FEF231A330A35
:1011F00080E3EF81F88580838B859C85892B21F1A5
:10120000F1013196FA83E983200E311E8EE2F1015D
:1012100080832B853C852E5F3F4F3C832B83AA2404
:10122000A394B12C41018A0C9B1C3FEFA31AB30A73
:101230008B819C81A816B90609F069C029803A8083
:10124000EB85FC852E0E3F1E200E311EF101108213
:10125000C8012C960FB6F894DEBF0FBECDBFDF914C
:10126000CF911F910F91FF90EF90DF90CF90BF90A3
:10127000AF909F908F907F906F905F904F903F9036
:101280002F900895912C812C2F813885280D391DA0
:101290003A872987A814B904B9F129813B814D8186
:1012A0005E81C701B6010E9426150E9498152B0188
:1012B0004AE069857A85C2010E946914B201550C21
:1012C000880B990B0E94D01529813B814D815E814D
:1012D0000E9485169B01AC01C701B6010E94B4149F
:1012E0006B017C0120E030E040E251E469817B81C8
:1012F0008D819E810E94261569837B838D839E83C9
:101300003FEF831A930AC0CF2A0C3B1C75CF20E015
:1013100030E040E251E4C701B6010E9485162B017E
:101320003C010E9498156B014AE0B401C6010E947D
:101330006914B601DD0C880B990B0E94D0159B0136
:10134000AC01C301B2010E94B4146B017C016ACFED
:1013500060E070E080E09FEB232B09F0E1CE20E01D
:1013600030E040E05FE3C301B2010E94B4146B01BE
:101370007C01F7CECF93DF93FC0101900020E9F7C9
:101380003197E81B30E020E0F0E2A90148575F4FB9
:101390004B505E4F2E1740F5DC01A20FB31FAC91EE
:1013A000EA01A8832F5F3F4F2031310571F7FB0120
:1013B00001900020E9F73197E61B90E080E040E2E1
:1013C0009C0128563F4F2B503E4F8E1780F4DB0177
:1013D000A80FB91F5C91E9015883019680319105EE
:1013E00079F7DF91CF910895DA01FC93DBCFD90132
:1013F0004C93F3CFCF92DF92EF92FF920F931F9314
:10140000CF932091F5013091F601203131050CF098
:1014100040C06B0179014FEFE41AF40AF701EE0FB7
:10142000FF1FEB50FE4F91838083F901EE0FFF1FEA
:10143000E95EFD4F71836083F901EE0FFF1FE95AEA
:10144000FD4F11821082220F331F8901095C1D4F4D
:10145000F80110820E9460148F71F801C181C07E72
:10146000C82BC6010E9460148295880F807ECF71C0
:10147000C82BF801C183F092F601E092F5018FEFDD
:101480008E0DCF911F910F91FF90EF90DF90CF9035
:1014900008958FEFF6CF0F931F93CF93DF938C01B7
:1014A000EB010E946014ADE7B2E090E020E29817F3
:1014B00020F5A8014F5F5F4FF80104910C938A015A
:1014C0009F5F1196903199F7CE010E946014ADE8AC
:1014D000B2E090E020E2981790F4AE014F5F5F4FCA
:1014E000FE01C491CC93EA019F5F1196903199F768
:1014F000DF91CF911F910F9108952C93E1CF2C9301
:10150000F3CF0C949E14FF920F931F93CF93DF930E
:10151000EC018B01FB01F0800E949E14F81621F073
:101520006F2DCE010E94A614F801F1802196CE0104
:101530000E949E14F81621F06F2DCE010E94A61471
:10154000C801DF91CF911F910F91FF9008950C94E6
:10155000A6141F920F920FB60F9211242F933F9350
:101560008F939F93AF93BF93809183019091840158
:10157000A0918501B09186013091820123E0230F73
:101580002D3758F50196A11DB11D2093820180933E
:10159000830190938401A0938501B093860180918B
:1015A000870190918801A0918901B0918A010196EB
:1015B000A11DB11D8093870190938801A09389019B
:1015C000B0938A01BF91AF919F918F913F912F91DD
:1015D0000F900FBE0F901F90189526E8230F0296CC
:1015E000A11DB11DD2CF1F920F920FB60F921124E1
:1015F0002F933F934F935F936F937F938F939F931B
:10160000AF93BF93CF93DF93EF93FF93E091CF011D
:10161000F091D001309709F45DC0C685D7858881E7
:101620005585852309F056C0818D928D0197F1F77C
:10163000238D348D68E070E040E081E0D90111979E
:10164000F1F79881952309F458C0482B880F615011
:101650007109A1F78091CE0190E001968F709927D2
:101660006091CD01681709F44CC0A091CE01B0E0A3
:10167000AE58BE4F4C938093CE0186898823D1F01B
:10168000C9010197F1F72881252381E090E0A0E0CE
:10169000B0E004C0880F991FAA1FBB1F2A95D2F77C
:1016A0002091700130917101822B932B90937101E5
:1016B00080937001878D90A1009711F00197F1F749
:1016C000858D968D0197F1F7A389B4898C919589C1
:1016D000892B8C93FF91EF91DF91CF91BF91AF91C7
:1016E0009F918F917F916F915F914F913F912F913A
:1016F0000F900FBE0F901F901895982F909549232B
:10170000A5CF87898160878BB8CFE2EDF1E01382A6
:10171000128288EE93E0A0E0B0E084839583A683F4
:10172000B78381E691E091838083A9EEB1E08C914B
:101730008E7F8C93128E118E148E138E168E158EB4
:1017400012A211A21092790210927A0210927B02D8
:1017500010927C02109277021092F6011092F5011D
:101760001092780284EA91E09093A4028093A302FD
:101770000895CF93DF93CDB7DEB7E3970FB6F89414
:10178000DEBF0FBECDBF789484B5826084BD84B5C2
:10179000816084BD85B5826085BD85B5816085BD6C
:1017A00080916E00816080936E0010928100809124
:1017B00081008260809381008091810081608093AC
:1017C0008100809180008160809380008091B100D1
:1017D00084608093B1008091B00081608093B000FC
:1017E00080917A00846080937A0080917A00826090
:1017F00080937A0080917A00816080937A00809152
:101800007A00806880937A001092C10061E08DE0D8
:101810000E94290261E08DE00E94FB0161E083E00B
:101820000E94290260E083E00E94FB0180918F0109
:101830009091900190930101809300016DEA70E016
:101840008CEB90E00E944B0A85EA90E09093F801BF
:101850008093F7011092180210921702109258020A
:10186000109257021092370287E08093380281E08D
:1018700090E09093F6018093F50161E083E00E948F
:10188000FB0161E083E00E9429024DEEE42E40E07E
:10189000F42EF70184918093E20109ED10E0F80144
:1018A0008491E82FF0E0EE0FFF1FEE58FF4F859177
:1018B00094919093E4018093E30160E083E00E94BF
:1018C000290261E083E00E94FB0183E08093DE0156
:1018D000F701E490E092DF01F8010491E02FF0E0DD
:1018E000EE0FFF1FE453FF4F859194919093E10118
:1018F0008093E00181E08093E80185E991E0909395
:10190000F4018093F30129EB30E03093EC01209354
:10191000EB0123E931E03093EE012093ED0146E540
:1019200054E05093F0014093EF013093F201209383
:10193000F101209168002460209368002DE630E0DA
:101940003093E6012093E50128E02093E701019719
:10195000F1F70E946B030E94590362E085E00E9448
:10196000290261E08DE00E94290290E080E00E945F
:10197000810A813071F161E090E080E00E94A70A65
:1019800060E081E090E00E94A70A60E082E090E0E1
:101990000E94A70A60E083E090E00E94A70A64E644
:1019A00084E090E00E94A70A88EE93E09A838983FE
:1019B000BE016F5F7F4F8AE090E00E94830A60E083
:1019C00084E190E00E94A70A60E085E190E00E9437
:1019D000A70A81E090E00E94810AA82EB12CB09263
:1019E000A601A092A50182E090E00E94810AE82E63
:1019F000F12CF092CC01E092CB0183E090E00E94C8
:101A0000810A082F10E010938E0100938D0184E06D
:101A100090E00E94810AC82ED12CD0928C01C092F5
:101A20008B018AE090E00E949E148093C5018BE0B8
:101A300090E00E949E148093C601AA94AB2809F0FE
:101A40005AC084E190E00E94810AB82E85E190E0BE
:101A50000E94810A6B2D70E0762F6627680F711D3A
:101A6000072E000C880B990B0E94D0156093A701DC
:101A70007093A8018093A9019093AA0120E030E01F
:101A8000A9010E9480161816B4F561E08DE00E944D
:101A9000FB0164EF71E080E090E00E949C0260E056
:101AA0008DE00E94FB0164EF71E080E090E00E9415
:101AB0009C0261E08DE00E94FB0164EF71E080E038
:101AC00090E00E949C0260E08DE00E94FB0164EFC8
:101AD00071E080E090E00E949C0261E08DE00E9455
:101AE000FB0164EF71E080E090E00E949C0260E006
:101AF0008DE00E94FB01F701EE0FFF1FEE0FFF1FAD
:101B0000E35DFE4F80819181A281B3818093BB010F
:101B10009093BC01A093BD01B093BE01F701EE0FFD
:101B2000FF1FEB5EFE4F808191819093C0018093F7
:101B3000BF01000F111FF801E35FFE4FE080F1804D
:101B40000B5F1E4FF80100811181F4E6CF1AD10816
:101B5000D0920301C0920201B801012E000C880B43
:101B6000990B0E94D0154B015C01B701600F711FEA
:101B7000072E000C880B990B0E94D0159B01AC011D
:101B8000C501B4010E9426156093C7017093C80176
:101B90008093C9019093CA016BE970E08DE990E0F0
:101BA0000E94FA09803188F490E0FC01EE0FFF1FDB
:101BB000E95AFD4F25E931E031832083880F991FD1
:101BC000FC01E95CFD4F88E280836EE870E082E909
:101BD00090E00E94FA09803188F490E0FC01EE0F59
:101BE000FF1FE95AFD4F21E931E031832083880F3F
:101BF000991FFC01E95CFD4F88E0808364E870E098
:101C000086E890E00E94FA09803188F490E0FC01B7
:101C1000EE0FFF1FE95AFD4F29E931E031832083A0
:101C2000880F991FFC01E95CFD4F88E480836CE715
:101C300070E08EE790E00E94FA09803188F490E02D
:101C4000FC01EE0FFF1FE95AFD4F23EB31E031831A
:101C50002083880F991FFC01E95CFD4F88E0808399
:101C60000E943D0460E08DE00E94FB01312C212C9C
:101C7000AA24A394B12C2CE0822E912C8091CB012C
:101C80009091CC01892B09F434C280E10E94650255
:101C9000BC01990F880B990B0E94D01520E030EC05
:101CA0004FE754E40E94261520E030E040EA50E47B
:101CB0000E9485162091C7013091C8014091C90149
:101CC0005091CA010E9426156B017C016091C501EB
:101CD0007091C601072E000C880B990B0E94D0153D
:101CE00020E030E04AE754E40E9426159B01AC0155
:101CF000C701B6010E9485162B013C014092C1012B
:101D00005092C2016092C3017092C40181E10E94AD
:101D10006502BC01990F880B990B0E94D01520E039
:101D200030EC4FE754E40E94261520E030E94CE9FE
:101D300055E40E9485166B017C016091BF01709192
:101D4000C001072E000C880B990B0E94D0159B0137
:101D5000AC01C701B6010E94B4146B017C01609113
:101D6000020170910301072E000C880B990B0E9451
:101D7000D0159B01AC01C701B6010E94B51420919A
:101D8000BB013091BC014091BD015091BE010E9448
:101D900026156B017C0120E030E0A9010E9421158D
:101DA00087FD96C1C092B701D092B801E092B90107
:101DB000F092BA01C090B701D090B801E090B9019B
:101DC000F090BA01A7019601C301B2010E948516E5
:101DD0000E9498156093B3017093B4018093B5018C
:101DE0009093B6010E94CE024090AF015090B00196
:101DF0006090B1017090B201930182010C501E4FAE
:101E00002F4F3F4F061717072807390708F049C01B
:101E10000E94CE0264197509860997090E94CE15A1
:101E200020E03AEB4BE55AE40E9426152B013C01D9
:101E300020E030E04AE754E4C701B6010E9485166D
:101E40009B01AC01C301B2010E94851620E030E085
:101E5000A9010E94B5149B01AC012093AB01309302
:101E6000AC014093AD015093AE016091A701709118
:101E7000A8018091A9019091AA010E94B5146093D4
:101E8000A7017093A8018093A9019093AA010E94D1
:101E9000CE026093AF017093B0018093B101909333
:101EA000B2010091A5011091A6010130110509F0C0
:101EB00018C120E030E040E85FE3C701B6010E94AE
:101EC000801618160CF00DC11093A4010093A30105
:101ED0001092A2011092A1010E94CE026856754C88
:101EE0008F4F9F4F60939D0170939E0180939F0140
:101EF0009093A00160E08DE00E94FB010E94CE0261
:101F000001301105C9F52091A3013091A401232BC3
:101F100099F52091A1013091A201232B69F5C09080
:101F20009D01D0909E01E0909F01F090A001C61607
:101F3000D706E806F90604F56091A7017091A8019B
:101F40008091A9019091AA010E9498156B01161623
:101F5000170694F46D2D84E190E00E94A70A6C2D81
:101F600085E190E00E94A70A1093A2010093A101CD
:101F700061E08DE00E94FB018091A5019091A60196
:101F8000019709F041C0E3E0F1E08491EFEEF0E069
:101F90001491EBEDF0E00491002309F4A7C0811146
:101FA0000E94D201E02FF0E0EE0FFF1FE453FF4F3D
:101FB000A591B4918C91182331E020E009F430E030
:101FC000832F922F2091A3013091A401232BE1F4C0
:101FD000892BD1F460E084E190E00E94A70A60E0E0
:101FE00085E190E00E94A70AB092A201A092A1010F
:101FF0001092A7011092A8011092A9011092AA01B3
:1020000060E08DE00E94FB0120E030E048EC52E40B
:102010006091C1017091C2018091C3019091C4018E
:102020000E9485160E9498156093990170939A01F9
:1020300080939B0190939C0120E030E040E251E4CA
:102040006091B7017091B8018091B9019091BA0186
:102050000E9485160E9498156093950170939601D1
:1020600080939701909398016091A7017091A801C6
:102070008091A9019091AA010E9498156093910105
:10208000709392018093930190939401E0918F015A
:10209000F09190018091000190910101E817F907FA
:1020A00021F0F0930101E0930001EB30F10508F01D
:1020B00072C1E35AFF4E0C9406179A10A110E81053
:1020C0002F1124125A12A512D712FA12CB1105138E
:1020D0001092B7011092B8011092B9011092BA0192
:1020E00069CE1092A4011092A30108CF90E080E085
:1020F00069CF1092C1011092C2011092C3011092D7
:10210000C4011092B7011092B8011092B901109257
:10211000BA011092B3011092B4011092B50110925D
:10212000B6011092A7011092A8011092A901109275
:10213000AA016ACF61ED72E080EE92E00E944B0A44
:102140002AC11A8A19826BEC72E0CE0142960E9473
:1021500055141BA24091B7015091B8016091B9018B
:102160007091BA0121E030E0CE0183960E946008B0
:10217000BE016D5D7F4FCE0142960E94201769EC33
:1021800072E0CE0142960E94551463EC72E0CE01DB
:1021900001960E9455141BA24091A7015091A801DD
:1021A0006091A9017091AA0130E020E0CE018396F0
:1021B0000E946008BE016D5D7F4FCE0101960E94B6
:1021C00020176FEB72E0CE0101960E945514DCC01F
:1021D0001A8A198265EB72E0CE0142960E9455146C
:1021E0001BA24091C1015091C2016091C301709145
:1021F000C40122E030E0CE0183960E946008BE0157
:102200006D5D7F4FCE0142960E94201763EB72E016
:10221000CE0142960E94551469EA72E0CE01019601
:102220000E9455141BA26091B3017091B40180917A
:10223000B5019091B6010E94D015AB01BC0130E010
:1022400020E0CE0183960E946008BE016D5D7F4F45
:10225000CE0101960E94201767EA72E0B4CF1A8A75
:10226000198266E972E0CE0142960E94551480916F
:10227000CB019091CC01892B31F466E872E0CE015C
:1022800001960E9455148091CB019091CC01019749
:1022900031F46AE772E0CE0101960E9455148091F4
:1022A000CB019091CC01029731F46EE672E0CE0141
:1022B00001960E9455148091CB019091CC01039717
:1022C00031F462E672E0CE0101960E9455148091CD
:1022D000CB019091CC01049731F465E572E0CE0119
:1022E00001960E9455148091CB019091CC010597E5
:1022F00031F467E472E0CE0101960E94551480919A
:10230000CB019091CC01069731F469E372E0CE01E4
:1023100001960E9455148091CB019091CC010797B2
:1023200031F46BE272E0CE0101960E945514809167
:10233000CB019091CC01089731F46EE172E0CE01AF
:1023400001960E9455148091CB019091CC01099780
:1023500031F460E172E0CE0101960E945514809143
:10236000CB019091CC010A9731F462E072E0CE018A
:1023700001960E9455148091CB019091CC0164EF9D
:1023800071E00B9709F41FCFBE016F5F7F4FCE0145
:1023900042960E94BA0982ED91E00E9443030E9496
:1023A00059030E943D0460E08091DE010E942902F1
:1023B00061E08091DE010E94FB010E946B030E949C
:1023C0006B030E94CE026B017C01F4E6CF0ED11CA0
:1023D000E11CF11C10E000E00E94CE026C157D05AE
:1023E0008E059F0508F030C182ED91E00E940B033D
:1023F000181619068CF782ED91E00E940B0318164F
:10240000190644F782ED91E00E9422038C018BAB08
:1024100080919E02081709F4FDC00E94CE02605709
:102420007E4F8F4F9F4F6093790270937A02809313
:102430007B0290937C0200939E028BA9803F09F05F
:10244000FAC000EF10E0C8CF1A8A198263EE71E07B
:10245000CE0142960E94551480918D0190918E017B
:10246000892B31F464ED71E0CE0101960E94551480
:1024700080918D0190918E01019731F466EC71E0AD
:10248000CE0101960E94551480918D0190918E018C
:10249000029731F468EB71E0CE0101960E94551469
:1024A00080918D0190918E0167EA71E0039709F0A8
:1024B0006BCF89CE1A8A19826DE971E0CE014296FE
:1024C0000E9455141BA24091B7015091B801609130
:1024D000B9017091BA0122E030E0CE0183960E94EA
:1024E0006008BE016D5D7F4FCE0142960E942017AD
:1024F0006BE971E0CE0142960E9455146DE871E0DF
:10250000CE0101960E9455141BA260918B0170911F
:102510008C01645671097093030160930201072EC8
:10252000000C880B990B0E94D015AB01BC0130E068
:1025300020E0CE0183960E946008BE016D5D7F4F52
:10254000CE0101960E9420171FCF1A8A198263E8D4
:1025500071E0CE0142960E9455141BA24091C10128
:102560005091C2016091C3017091C40122E030E03A
:10257000CE0183960E946008BE016D5D7F4FCE0143
:1025800042960E94201761E871E0CE0142960E94B7
:10259000551463E771E0CE0101960E9455141BA209
:1025A0006091C5017091C601685E7340B8CF1A8A08
:1025B000198267E671E0CE0142960E94551480911F
:1025C000A5019091A601892B31F464E671E0CE015A
:1025D00042960E9455148091A5019091A601019701
:1025E00031F460E671E0CE0142960E9455146FE42A
:1025F00071E0E9CD1A8A198261E471E0CE01429658
:102600000E94551461E371E0DECD62E171E081E288
:1026100091E094CD4090790250907A0260907B02D4
:1026200070907C020E94CE02461657066806790614
:1026300008F4F3CECFCE11270115110509F4CACE47
:10264000003F110539F413C0003F110581F0011559
:10265000110569F0003B110509F4C8C084F4003786
:10266000110509F458C00039110509F4EBC080E0E8
:1026700090E0892B09F402CB0E940000F9CA003DCA
:10268000110509F45CC0003E110589F780918F01A6
:10269000909190018A30910551F389309105A9F507
:1026A00061E090E080E00E94A70A6091A50181E0CE
:1026B00090E00E94A70A6091CB0182E090E00E9426
:1026C000A70A60918D0183E090E00E94A70A6091C3
:1026D0008B0184E090E00E94A70A65EC71E08AE03B
:1026E00090E00E94830A1A821982BE016F5F7F4FB9
:1026F00084E190E00E94830A68EC70E080E090E062
:102700000E949C02F1010995B2CF0196909390012D
:1027100080938F01ACCF80918F019091900183368F
:10272000910521F41092900110928F0180918F01F8
:1027300090919001009709F49ACF0197E7CF80918B
:102740008F019091900183309105C1F48091CB016C
:102750009091CC018C3091052CF401969093CC0192
:102760008093CB018091CB019091CC010C9709F023
:102770007ECF1092CC011092CB0179CF843091059D
:10278000C1F480918D0190918E01843091052CF4DB
:10279000019690938E0180938D0180918D0190918F
:1027A0008E01049709F063CF10928E0110928D0173
:1027B0005ECF8530910509F052C080918B019091D8
:1027C0008C01019690938C0180938B0150CF809166
:1027D000C5019091C60101969093C6018093C501F1
:1027E00046CF1092A6011092A50141CF80918F0192
:1027F0009091900183309105C1F48091CB0190912B
:10280000CC01892B21F49092CC018092CB01809154
:10281000CB019091CC01181619060CF028CF019726
:102820009093CC018093CB0122CF8430910509F4A1
:10283000A8CF8530910531F580918B0190918C0165
:102840000197C0CF80918F0190919001089709F076
:102850000ECF60E090E080E00E94A70A4DCF863066
:10286000910509F4B4CF079709F001CF8091A50134
:102870009091A601892B09F0B4CFB092A601A09245
:10288000A501F5CE8630910571F78091C501909133
:10289000C6010197A1CF81E691E09093D301809387
:1028A000D20182ED91E00C944303FB01DC010D9019
:1028B0000020E9F7119705900D920020E1F70895A7
:1028C000FC0105900020E9F7809590958E0F9F1FE1
:1028D0000895BB274A3031F4992322F4BDE2909544
:1028E00081959F4F0C947514BB27FB015527AA2790
:1028F000880F991FAA1FA41710F0A41B839550518D
:10290000B9F7A05DAA3308F0A95DA193009779F704
:10291000B111B1931192CB010C948E14DC01FC0126
:10292000672F71917723E1F7329704C07C916D9303
:1029300070836291AE17BF07C8F30895F999FECF6F
:1029400092BD81BDF89A992780B50895262FF999EF
:10295000FECF1FBA92BD81BD20BD0FB6F894FA9A82
:10296000F99A0FBE019608955058BB27AA270E94D6
:10297000CC140C9446160E94381638F00E943F166C
:1029800020F039F49F3F19F426F40C9435160EF418
:10299000E095E7FB0C942F16E92F0E94571658F389
:1029A000BA17620773078407950720F079F4A6F534
:1029B0000C9479160EF4E0950B2EBA2FA02D0B0176
:1029C000B90190010C01CA01A0011124FF27591B74
:1029D00099F0593F50F4503E68F11A16F040A22F7A
:1029E000232F342F4427585FF3CF469537952795EB
:1029F000A795F0405395C9F77EF41F16BA0B620BEA
:102A0000730B840BBAF09150A1F0FF0FBB1F661F30
:102A1000771F881FC2F70EC0BA0F621F731F841F73
:102A200048F4879577956795B795F7959E3F08F099
:102A3000B0CF9395880F08F09927EE0F979587955B
:102A400008950E940B1608F481E008950E943A153B
:102A50000C9446160E943F1658F00E94381640F01B
:102A600029F45F3F29F00C942F1651110C947A161B
:102A70000C9435160E94571668F39923B1F3552329
:102A800091F3951B550BBB27AA2762177307840781
:102A900038F09F5F5F4F220F331F441FAA1FA9F317
:102AA00035D00E2E3AF0E0E832D091505040E69505
:102AB000001CCAF72BD0FE2F29D0660F771F881F66
:102AC000BB1F261737074807AB07B0E809F0BB0B59
:102AD000802DBF01FF2793585F4F3AF09E3F51056D
:102AE00078F00C942F160C947A165F3FE4F3983E1E
:102AF000D4F3869577956795B795F7959F5FC9F756
:102B0000880F911D9695879597F90895E1E0660FD6
:102B1000771F881FBB1F621773078407BA0720F04F
:102B2000621B730B840BBA0BEE1F88F7E0950895B8
:102B30000E949F156894B1110C947A1608950E9412
:102B40005F1688F09F5798F0B92F9927B751B0F0CA
:102B5000E1F0660F771F881F991F1AF0BA95C9F721
:102B600014C0B13091F00E947916B1E008950C9430
:102B70007916672F782F8827B85F39F0B93FCCF3E3
:102B8000869577956795B395D9F73EF4909580959E
:102B9000709561957F4F8F4F9F4F0895E89409C0BE
:102BA00097FB3EF490958095709561957F4F8F4F80
:102BB0009F4F9923A9F0F92F96E9BB279395F69596
:102BC000879577956795B795F111F8CFFAF4BB0F14
:102BD00011F460FF1BC06F5F7F4F8F4F9F4F16C078
:102BE000882311F096E911C0772321F09EE8872F02
:102BF000762F05C0662371F096E8862F70E060E0BE
:102C00002AF09A95660F771F881FDAF7880F969536
:102C1000879597F90895990F0008550FAA0BE0E8DA
:102C2000FEEF16161706E807F907C0F0121613068E
:102C3000E407F50798F0621B730B840B950B39F4CE
:102C40000A2661F0232B242B252B21F408950A2634
:102C500009F4A140A6958FEF811D811D089597F974
:102C60009F6780E870E060E008959FEF80EC089532
:102C700000240A941616170618060906089500245B
:102C80000A9412161306140605060895092E0394D5
:102C9000000C11F4882352F0BB0F40F4BF2B11F449
:102CA00060FF04C06F5F7F4F8F4F9F4F089557FDA8
:102CB0009058440F551F59F05F3F71F04795880FAA
:102CC00097FB991F61F09F3F79F087950895121641
:102CD00013061406551FF2CF4695F1DF08C01616ED
:102CE00017061806991FF1CF86957105610508949E
:102CF0000895E894BB2766277727CB0197F90895B5
:102D00000E940B1608F48FEF08950E9498160C94F9
:102D100046160E94381638F00E943F1620F0952380
:102D200011F00C942F160C94351611240C947A166D
:102D30000E94571670F3959FC1F3950F50E0551FF1
:102D4000629FF001729FBB27F00DB11D639FAA2700
:102D5000F00DB11DAA1F649F6627B00DA11D661F4F
:102D6000829F2227B00DA11D621F739FB00DA11D70
:102D7000621F839FA00D611D221F749F3327A00D2A
:102D8000611D231F849F600D211D822F762F6A2FC6
:102D900011249F5750409AF0F1F088234AF0EE0F2B
:102DA000FF1FBB1F661F771F881F91505040A9F758
:102DB0009E3F510580F00C942F160C947A165F3FBD
:102DC000E4F3983ED4F3869577956795B795F79594
:102DD000E7959F5FC1F7FE2B880F911D969587950C
:102DE00097F9089597FB072E16F4009407D077FD06
:102DF00009D00E940C1707FC05D03EF490958195F0
:102E00009F4F0895709561957F4F0895EE0FFF1FB6
:102E10000590F491E02D0994AA1BBB1B51E107C05A
:102E2000AA1FBB1FA617B70710F0A61BB70B881F5A
:102E3000991F5A95A9F780959095BC01CD010895E9
:102E4000FB01DC010D900020E9F7119701900D9234
:102E50000020E1F7089511E0C9E7D1E004C0FE01C8
:102E60000E9406172196CA37D107C9F7F894FFCFF9
:102E70000100640006E803D007E803D007F82A1031
:102E800027D007D007C409C409C409C409C409C4A8
:102E900009C409C40958025802580258020000C85F
:102EA00042000039430000C8420000844200002074
:102EB000420000A041CDCC544100002041000070F0
:102EC00042000020429A99D5410000A04100000034
:102ED000009C03A50199030A030B032203F20200DD
:00000001FF
