:100000000C9485010C94AD010C94AD010C94330457
:100010000C9433040C9433040C94AD010C94AD0196
:100020000C94AD010C94AD010C94AD010C94AD0198
:100030000C94AD010C94AD010C94AD010C94AD0188
:100040000C94DD030C94AD010C94AD010C94AD0146
:100050000C94AD010C94AD010C94AD010C94AD0168
:100060000C94AD010C94AD01411046108910D010D4
:1000700066119C11D2111D1240125C125612000022
:100080000000240027002A000000000025002800AE
:100090002B005700506F776572005600566F6C74D6
:1000A000616765006D4168004361706163697479DF
:1000B00000410043757272656E74005243542041D2
:1000C0006D700020416D7053656E736F7220312E1C
:1000D000320020524354204A65746920546F6F6C7B
:1000E000730000000000230026002900040404041B
:1000F00004040404020202020202030303030303D2
:1001000001020408102040800102040810200102AE
:10011000040810200000000800020100000304078A
:10012000000000000000000020416D7053656E73F8
:100130006F7220312E320020524354204A65746978
:1001400020546F6F6C7300527374205570446E208E
:1001500053617665203E005265736574206F72208E
:1001600053617665004368616E676520446E204E7A
:10017000657874203E00596573004E6F00446967CE
:100180002E52657365743A200043616C6962726136
:1001900074696F6E3A20005600566F6C7461676523
:1001A0003A200043616C6962726174696F6E3A2033
:1001B00000410043757272656E743A200020204D34
:1001C00061782E2032532F52782031305600202073
:1001D0004D61782E203353203135560020204D615B
:1001E000782E203653203330560020204D61782E53
:1001F000203134532036305600536574204D6178D9
:100200002E20566F6C746167650020204143533780
:1002100035382D32303055002020414353373538A2
:100220002D313530550020204143533735382D319D
:100230003030550020204143533735382D35305567
:100240000020204143533735382D323030420020D2
:10025000204143533735382D31353042002020417D
:1002600043533735382D313030420020204143533D
:100270003735382D35304200202041435337313255
:100280002D33300020204143533731322D3230009E
:1002900020204143533731322D3035002053656ED5
:1002A000736F72204E6F7420536574005365742011
:1002B00053656E736F7220547970653A0057005021
:1002C0006F7765723A202020005600566F6C74617B
:1002D00067653A20006D4168004361703A20004133
:1002E000004375723A200020416D7053656E736F44
:1002F0007220312E320020524354204A6574692006
:10030000546F6F6C7300F713890B11241FBECFEF6E
:10031000D8E0DEBFCDBF11E0A0E0B1E0E6E2FEE252
:1003200002C005900D92A237B107D9F722E0A2E7EB
:10033000B1E001C01D92A73BB207E1F711E0C4E8AC
:10034000D1E004C02197FE010E94DC16C338D1071A
:10035000C9F70E94930B0C9406170C940000CF92DF
:10036000DF92EF92FF920F931F93CF93DF936C0175
:100370007A018B01C0E0D0E0CE15DF0589F0D8010D
:100380006D918D01D601ED91FC910190F081E02DF0
:10039000C6010995892B11F47E0102C02196ECCF8C
:1003A000C701DF91CF911F910F91FF90EF90DF90E8
:1003B000CF900895833081F028F4813099F0823015
:1003C000A1F008958730A9F08830B9F08430D1F4D5
:1003D000809180008F7D03C0809180008F77809313
:1003E0008000089584B58F7702C084B58F7D84BD69
:1003F00008958091B0008F7703C08091B0008F7D09
:100400008093B00008958E3008F08E50877080641D
:1004100080937C0080917A00806480937A00809140
:100420007A0086FDFCCF809178002091790090E0E1
:10043000922B08950895DC015196ED91FC9152970D
:10044000908150968C918095892380830895209186
:10045000E1013091E2012817390771F49091DF0131
:100460008091E001981741F0E091DF01F0E0EC5855
:10047000FE4F808190E008958FEF9FEF08950895DB
:100480002091E1013091E2012817390769F4809148
:10049000E0012091DF0190E04096821B910960E12C
:1004A00070E00E94C816089580E090E008952091C1
:1004B000E1013091E20128173907B9F49091DF0189
:1004C0008091E001981789F0E091DF01F0E0EC58AD
:1004D000FE4F80812091DF0130E02F5F3F4F2F7072
:1004E00033272093DF0190E008958FEF9FEF089569
:1004F000089580E090E008950E94F616CF92DF9272
:10050000EF92FF920F931F93CF93DF93EC0189A19A
:100510009AA1009729F421E030E03B832A8371C03F
:100520000FB7F8948F8D98A1892B91F028E030E0D7
:1005300090E081E0482F462309F09F5F880F21500B
:100540003109C1F7888D81119F5F192F109501C066
:1005500010E0F62ECE010E941B0289A19AA10197FC
:10056000F1F788E0C82ED12CEE24E3948E2D8F2154
:1005700039F0E989FA8990818889892B808303C0C1
:10058000CE010E941B0289A19AA10197F1F7EE0CFE
:1005900081E0C81AD10851F78E89882389F0888DA7
:1005A000882339F0E989FA8990818889892B8083A9
:1005B00003C0CE010E941B0289A19AA10197F1F705
:1005C0008F8D98A1892B81F010FF07C0E989FA89E6
:1005D00090818889892B808303C0CE010E941B02F1
:1005E0008F8D98A10197F1F7E989FA89908188891F
:1005F000892B80830FBF8D8D9E8D0197F1F781E050
:1006000090E0DF91CF911F910F91FF90EF90DF90DD
:10061000CF900895AF92BF92CF92DF92EF92FF9268
:100620000F931F93CF93DF931F92CDB7DEB75C017B
:100630007B018B016C0182E0C80ED11CF801619135
:100640008F01C50169830E9474146981681719F0CC
:10065000C5010E947C14FFEFAF1ABF0AAC14BD04A1
:1006600069F7C7010F90DF91CF911F910F91FF9014
:10067000EF90DF90CF90BF90AF9008950C947C14D2
:100680001F93CF93DF93282F30E0F901EC5EFE4FEC
:100690008491F901E050FF4FD491F901E451FF4FEB
:1006A000C491CC23C9F0162F81110E94DA01EC2FDE
:1006B000F0E0EE0FFF1FE857FF4FA591B4918FB701
:1006C000F894111105C09C91ED2FE095E92302C02B
:1006D000EC91ED2BEC938FBFDF91CF911F9108959B
:1006E000CF93DF9390E0FC01E050FF4F2491FC0199
:1006F000E451FF4F8491882361F190E0880F991FA6
:10070000FC01E258FF4FC591D491FC01E857FF4F1F
:10071000A591B491611109C09FB7F8948881209583
:1007200082238883EC912E230BC0623061F49FB743
:10073000F8943881822F809583238883EC912E2B27
:100740002C939FBF06C08FB7F894E8812E2B288387
:100750008FBFDF91CF9108953FB7F89480918901C1
:1007600090918A01A0918B01B0918C0126B5A89B34
:1007700005C02F3F19F00196A11DB11D3FBFBA2F33
:10078000A92F982F8827820F911DA11DB11DBC0193
:10079000CD0142E0660F771F881F991F4A95D1F758
:1007A00008952FB7F894609185017091860180912A
:1007B0008701909188012FBF08951F920F920FB665
:1007C0000F9211242F933F938F939F93AF93BF93D7
:1007D0008091850190918601A0918701B091880157
:1007E0003091840123E0230F2D3720F40196A11DC1
:1007F000B11D05C026E8230F0296A11DB11D20934F
:1008000084018093850190938601A0938701B09322
:1008100088018091890190918A01A0918B01B0910A
:100820008C010196A11DB11D8093890190938A01CD
:10083000A0938B01B0938C01BF91AF919F918F9149
:100840003F912F910F900FBE0F901F901895862704
:1008500098E027E087FF03C0880F822701C0880F38
:100860009150C1F708951F920F920FB60F92112465
:100870002F933F934F935F936F937F938F939F93A8
:10088000AF93BF93CF93DF93EF93FF93E091E10199
:10089000F091E201309709F467C0C685D785888159
:1008A0002585822309F060C0818D928D0197F1F733
:1008B000438D548D68E070E030E081E0DA011197FB
:1008C000F1F79881922311F0382B03C0982F90955F
:1008D0003923880F6150710989F78091E00190E018
:1008E00001968F7099276091DF01681749F0A091F8
:1008F000E001B0E0AC58BE4F3C938093E00103C0F0
:1009000087898160878B86898823F1F0CA010197E6
:10091000F1F78881282381E090E0A0E0B0E004C0F6
:10092000880F991FAA1FBB1F2A95D2F74091720109
:100930005091730160E070E0842B952BA62BB72BB0
:100940009093730180937201878D90A1009711F0AD
:100950000197F1F7858D968D0197F1F7A389B489F9
:100960009C918589892B8C93FF91EF91DF91CF9199
:10097000BF91AF919F918F917F916F915F914F91B7
:100980003F912F910F900FBE0F901F901895E091FF
:10099000E101F091E201E817F90769F4A389B4894C
:1009A0009C918589809589238C931092E201109205
:1009B000E10181E0089580E008950F931F93CF93A4
:1009C000C82F03EE11E0F801608F682FC8010E9464
:1009D0007E02F801108E8C2FCF911F910F910895F8
:1009E0002F923F924F925F926F927F928F929F923F
:1009F000AF92BF92CF92DF92EF92FF920F931F932D
:100A0000CF93DF93CDB7DEB72A970FB6F894DEBF4A
:100A10000FBECDBF8C012A013B013A87298720E018
:100A200030E0A901C301B2010E94F71487FF05C09D
:100A300060E070E080E09FEB04C060E070E080E088
:100A40009FE3E12CF12CA985BA85EA16FB0654F444
:100A500020E030E040E251E40E94FC142FEFE21A63
:100A6000F20AF1CF9B01AC01C301B2010E948B14C9
:100A70006B017C0120E030E0A901C301B2010E94BA
:100A8000F71487FF04C0F7FAF094F7F8F094A12C5C
:100A9000B12CBDECB983ECECEA83FCECFB832DE3D9
:100AA0002C8320E030E040E251E469817A818B813F
:100AB0009C810E945B16962E872E382E292EA70128
:100AC00096010E94F714181644F03FEFA31AB30AD8
:100AD00099828A823B822C82E4CFA114B10429F04E
:100AE00045016FEF861A960A03C092E0892E912C79
:100AF00020E030E0A901C301B2010E94F71487FF92
:100B000003C07FEF871A970A89859A850196880E18
:100B1000991E1814190444F081E090E0DC01A81932
:100B2000B909BE83AD8302C01E821D8220E030E081
:100B3000A901C301B2010E94F71487FF07C08DE22B
:100B4000F801808388248394912C02C0812C912CFD
:100B5000A114B10449F4F801E80DF91D80E3808384
:100B600094012F5F3F4F4901212C312CB101680DB9
:100B7000791D78876F832A143B04D1F129813A814A
:100B80004B815C81C701B6010E94FC140E946E1566
:100B90002B013C016F817885600F711F4AE0C20113
:100BA0000E943F14B201550C880B990B0E94A615A8
:100BB00029813A814B815C810E945B169B01AC01CB
:100BC000C701B6010E948A146B017C0120E030E06D
:100BD00040E251E469817A818B819C810E94FC14FE
:100BE00069837A838B839C833FEF231A330ABECFBA
:100BF0005B0189859A851816190644F4F801E60FF9
:100C0000F71F8EE28083DB0111965D01812C912C10
:100C1000E985FA858E169F064CF520E030E040E22B
:100C200051E4C701B6010E945B162B013C010E94F2
:100C30006E156B017C01B4016A0D7B1D600F711F85
:100C40004AE0C6010E943F14B601DD0C880B990BE7
:100C50000E94A6159B01AC01C301B2010E948A1437
:100C60006B017C01BFEF8B1A9B0AD2CFCF01F7FF3C
:100C700002C080E090E0A80EB91E2D813E81232B9A
:100C800089F09501F801EA0DFB1D40E26FEFA61A0D
:100C9000B60A4193C501821B930BAD81BE818A17B1
:100CA0009B07A4F3F801EA0DFB1D1082C8012A96E8
:100CB0000FB6F894DEBF0FBECDBFDF91CF911F916D
:100CC0000F91FF90EF90DF90CF90BF90AF909F90EB
:100CD0008F907F906F905F904F903F902F900895EE
:100CE0002F923F924F925F926F927F928F929F923C
:100CF000AF92BF92CF92DF92EF92FF920F931F932A
:100D0000CF93DF93C090B002D090B102E090B202D6
:100D1000F090B3020E94D103209188022223E9F0CF
:100D200060E08EE70E94DD0461E082E90E94DD045C
:100D300061E083E20E94DD0461E0809188020E940C
:100D4000DD0480910601882311F0815003C01092C8
:100D5000880286E08093060170C324EFC20E21E072
:100D6000D21EE11CF11C11E0C616D706E806F906F2
:100D700008F010E060E08EE70E94DD0461E08FE99A
:100D80000E94DD04111170C080918902A0910602B9
:100D9000B0910702E82FF0E0EE0FFF1FE859FD4F7A
:100DA00020813181232B49F48F5F282F30E02A17CF
:100DB0003B0784F31092890202C0809389026091FC
:100DC0008902F6E0E0E026E030E0E12C40E050E08F
:100DD00070E0CA01860F971F8A179B07A4F500973A
:100DE00009F1E394880F991FFC01E85BFD4F8081B6
:100DF0008F718830A1F0813019F4C901039615C0B4
:100E0000811103C0C901029610C0853019F4C901CF
:100E100004960BC0893019F0C901019606C0C901BA
:100E2000059603C0C9012F2F3E2F4F5F5F4F403102
:100E3000510551F08B31910514F0EA9404C0F22F62
:100E4000E32F9C01C6CFC901C82FC06481E0809305
:100E5000FB016C2F83EE91E00E947E0260E08C2FFC
:100E60000E942704C82F1DC0E091B602F0E0EE0FEB
:100E7000FF1FE75BFD4F8081C82FCF71829586955C
:100E80008770C80FC85F81E08093FB016C2F83EEF1
:100E900091E00E947E0260E08C2F0E942704C82F00
:100EA000E12CD1E0D093FB0161E183EE91E00E945F
:100EB0007E026C2F81E10E942704C82FD093FB0192
:100EC00064EA83EE91E00E947E026C2F84EA0E9425
:100ED0002704C82FD093FB0162E083EE91E00E94CB
:100EE0007E026C2F82E00E942704C82FD093FB0162
:100EF00069E083EE91E00E947E026C2F89E00E94FF
:100F00002704C82FD093FB0160E083EE91E00E949C
:100F10007E021092FB016C2F80E00E942704F82EC5
:100F20001111EAC1C09189026E2C6C0E209106024B
:100F300030910702C61551F0772473947C0E70929D
:100F400089020C2F10E00217130754F080918902D8
:100F500090E0821793070CF46CC21092890269C268
:100F6000CC2309F4C7C1E091B402F091B502099510
:100F7000C295C07F680131E2C30ED11CC601880F43
:100F8000991FFC01EA5FFD4F5F0180818F7190E046
:100F90008530910509F4BEC0F4F5009709F495C0B9
:100FA000019709F0A7C1000F111FF801E859FD4F83
:100FB0000190F081E02D00811181C160D093FB018F
:100FC0006C2F83EE91E00E947E026F2D8C2F0E9489
:100FD0002704C82F1F79F5012081229526952770B7
:100FE00030E0322F22273295330F307E022B132B25
:100FF000D093FB01602F83EE91E00E947E026C2F64
:10100000802F0E942704082F912F9F79F501C0811E
:10101000C07EC92B74C08830910521F0099709F46E
:10102000C2C068C1C860D093FB016C2F83EE91E011
:101030000E947E026F2D8C2F0E942704C82F000F64
:10104000111FF801E859FD4F0190F081E02D8081DA
:101050009181A281B3816C017D01FFE9FF22D093D0
:10106000FB016C2D83EE91E00E947E026C2F8C2D93
:101070000E942704C82F2D2C3E2C4F2C552447FCB2
:101080005A94D093FB01622D83EE91E00E947E0280
:101090006C2F822D0E942704C82F1701552437FC7E
:1010A0005094452CD093FB01622D83EE91E00E9479
:1010B0007E026C2F822D0E942704182F9F2D9F796E
:1010C000F501C081C07EC92B62C0000F111FF8015D
:1010D000E859FD4F0190F081E02D1081D093FB0184
:1010E0006C2F83EE91E00E947E026F2D8C2F0E9468
:1010F0002704082F1F79F501C081C07EC12BD09332
:10110000FB016C2F83EE91E00E947E021092FB01A6
:10111000602F47C0C560D093FB016C2F83EE91E038
:101120000E947E021092FB016F2D8C2F0E942704DB
:10113000F82E000F111FF801E859FD4F0190F081C2
:10114000E02D118102819081F50120812295269563
:101150002770213011F0C0E001C0C0E4C92BD0934A
:10116000FB01602F83EE91E00E947E026F2D802FA5
:101170000E942704082FD093FB01612F83EE91E09A
:101180000E947E02602F812F0E942704182FD09387
:10119000FB016C2F83EE91E00E947E021092FB0116
:1011A000612F8C2FA4C0C960D093FB016C2F83EEFC
:1011B00091E00E947E026F2D8C2F0E942704C82F81
:1011C000000F111FF801E859FD4F0190F081E02D4B
:1011D00080809180A280B38020E030E0A901C50129
:1011E000B4010E94561618161CF4C501B40103C0C0
:1011F000C501B40190580E9475158B0180E090E004
:101200000E94A4159B01AC01C501B4010E948A147F
:101210002AE939E949E15FE30E945B1620E030E505
:1012200043EC57E40E945B161B012C0120E030E0E8
:10123000A9010E94561618161CF4C201B10103C080
:10124000C201B10190580E947515562EF72E812FBC
:101250008170F601EE0FFF1FEA5FFD4F90819295BE
:1012600096959770913011F090E001C090E2192F9F
:10127000182B20E030E0A901C501B4010E94F71449
:10128000881F8827881F8295880F880F807C182BDD
:10129000D093FB01652D83EE91E00E947E026C2FBE
:1012A000852D0E942704C82FD093FB016F2D83EE5C
:1012B00091E00E947E026C2F8F2D0E942704C82F80
:1012C000D093FB01602F83EE91E00E947E026C2F91
:1012D000802F0E942704C82FD093FB01612F83EE3B
:1012E00091E00E947E021092FB016C2F812F0E94E0
:1012F0002704F82EC72D1ACEC091B602D093FB0159
:101300006C2F83EE91E00E947E026F2D8C2F0E9445
:101310002704B82E0C2F10E06801CC0CDD1C9601C0
:10132000275B3D4F4901F9012081922F9F71F8E021
:101330009F9F70011124229526952770E22AD09351
:10134000FB016E2D83EE91E00E947E021092FB0164
:101350006B2D8E2D0E942704F82EF601E85FFD4FBD
:10136000D081AD2EB180772473942A2D2D1B30E0CF
:10137000F40180818F7190E028173907A4F4F501FA
:10138000E4907092FB016E2D83EE91E00E947E024C
:101390001092FB016F2D8E2D0E942704F82EFFEF77
:1013A000AF1ABF0AE2CF000F111FD801A85DBD4FD1
:1013B000DC910D2F11961C919601275B3D4F690121
:1013C000BB24B394202F2D1B30E0F6018081829541
:1013D0008695877090E0281739079CF4F801E4900F
:1013E000B092FB016E2D83EE91E00E947E0210927E
:1013F000FB016F2D8E2D0E942704F82E0F5F1F4FCB
:10140000E1CFCF5FC093B6028C2F90E0209106020F
:10141000309107028217930714F01092B6020E94CF
:10142000D1036093B0027093B1028093B2029093A3
:10143000B30261E08F2D0E94DD04E091B402F091CF
:10144000B502099560E08EEF0E94DD04CEE8D2E09F
:101450001C2F105E61E089910E94DD041C13FACFFD
:1014600060E08FEF0E94DD0481E0DF91CF911F915A
:101470000F91FF90EF90DF90CF90BF90AF909F9033
:101480008F907F906F905F904F903F902F90089536
:10149000CF92DF92FF920F931F93CF93DF93209110
:1014A00006023091070220313105CCF56B0189012C
:1014B0000F5F1F4FF801EE0FFF1FEA5FFD4F918393
:1014C0008083F901EE0FFF1FE85DFD4F718360839C
:1014D000F901EE0FFF1FE859FD4F11821082220F14
:1014E000331FE901C85BDD4F18820E943614982F24
:1014F0009F718981807EF82EF92AC6010E943614D8
:101500008295880F807E9F2D9F71F92EF82AF9828F
:1015100010930702009306028FEF800F01C08FEF38
:10152000DF91CF911F910F91FF90DF90CF900895A1
:10153000CF93DF9383EE91E00E94C704C3EED1E026
:1015400061E08C850E94700361E08C85DF91CF9112
:101550000C9440038091000290910102892B31F19B
:101560008091E1019091E20121E0833E9207F1F048
:10157000009711F00E94C7048091FA018E7F80933A
:10158000FA011092E0011092DF0183EE91E0909356
:10159000E2018093E101E091F601F091F701908181
:1015A0008091F801892B808381E0089580E008957F
:1015B0000F931F93CF93DF938C01EB010E9436149E
:1015C000AEE8B2E090E020E2981740F4A8014F5F47
:1015D0005F4FF80104910C938A0101C02C939F5F27
:1015E0001196903189F7CE010E943614AEE9B2E02F
:1015F00090E020E2981740F4AE014F5F5F4FFE018C
:10160000C491CC93EA0101C02C939F5F1196903155
:1016100089F7DF91CF911F910F910895CF93DF93B9
:10162000FC0101900020E9F73197E81B20E030E051
:10163000F0E2A90148575F4F2E1748F4EA01CA5F4C
:10164000DD4FDC01A20FB31FAC91A88304C0DA0107
:10165000AA5FBD4FFC932F5F3F4F2031310549F703
:10166000FB0101900020E9F73197E61B80E090E054
:1016700040E29C0128563F4F8E1748F4E901CA5FAB
:10168000DD4FDB01A80FB91F5C91588304C0D9015D
:10169000AA5FBD4F4C9301968031910551F7DF91C0
:1016A000CF9108958F929F92AF92BF92CF92DF9287
:1016B000EF92FF920E94AC034B015C0188ECC82EB4
:1016C000D12CE12CF12C0E94AC03DC01CB01881958
:1016D0009909AA09BB09883E9340A105B10558F0B4
:1016E00021E0C21AD108E108F10888EE880E83E0F3
:1016F000981EA11CB11CC114D104E104F10419F716
:10170000FF90EF90DF90CF90BF90AF909F908F9021
:10171000089583E691E09093E4018093E30183EEE2
:1017200091E00C94C704CF93DF93CDB7DEB7E29777
:101730000FB6F894DEBF0FBECDBF789484B582603B
:1017400084BD84B5816084BD85B5826085BD85B565
:10175000816085BD80916E00816080936E001092E3
:10176000810080918100826080938100809181005E
:1017700081608093810080918000816080938000EF
:101780008091B10084608093B1008091B00081604D
:101790008093B00080917A00846080937A00809179
:1017A0007A00826080937A0080917A0081608093D1
:1017B0007A0080917A00806880937A001092C1004C
:1017C00061E08DE00E94700361E08DE00E944003C3
:1017D00061E083E00E94700360E083E00E944003C8
:1017E0008091970190919801909303018093020159
:1017F00063EC70E082ED90E00E94D80A8BEB90E001
:1018000090930902809308021092290210922802F4
:1018100010926902109268021092480287E0809349
:10182000490281E090E0909307028093060261E014
:1018300083E00E94400361E083E00E94700353E074
:10184000E52E51E0F52EF70184918093F3010FEE20
:1018500010E0F801849190E0880F991F88579F4FFE
:10186000FC01259134913093F5012093F40160E05F
:1018700083E00E94700361E083E00E94400383E004
:101880008093EF01F701E490E092F001F8010491F8
:10189000E02FF0E0EE0FFF1FEE51FF4F8591949186
:1018A0009093F2018093F10181E08093F90185E941
:1018B00091E0909305028093040229EB30E030938D
:1018C000FD012093FC0123E931E03093FF012093D7
:1018D000FE0146E554E0509301024093000230932C
:1018E0000302209302022091680024602093680084
:1018F0002DE630E03093F7012093F60128E02093A5
:10190000F8010197F1F70E94AA0A0E94980A62E082
:1019100085E00E94700380E090E00E9474148130A2
:1019200069F161E080E090E00E943E0360E081E0C8
:1019300090E00E943E0360E082E090E00E943E035F
:1019400060E083E090E00E943E0364E684E090E083
:101950000E943E0388EE93E09A838983BE016F5F05
:101960007F4F8AE090E00E940A031A821982BE012A
:101970006F5F7F4F84E190E00E940A0381E090E076
:101980000E947414A82EB12CB092B401A092B3019D
:1019900082E090E00E947414082F10E01093DE01A2
:1019A0000093DD0183E090E00E947414E82EF12C96
:1019B000F0929401E092930184E090E00E9474140C
:1019C000C82ED12CD0929201C09291018AE090E071
:1019D0000E9474148093D7018BE090E00E947414ED
:1019E0008093D801AA94AB2809F47EC0F801EE0FC9
:1019F000FF1FEE0FFF1FE15DFE4F80819181A281ED
:101A0000B3818093CD019093CE01A093CF01B09389
:101A1000D001000F111FF801E95EFE4F8081918116
:101A20009093D2018093D1019701220F331FF901C6
:101A3000E15FFE4FE080F180F0929001E0928F0133
:101A4000F901E95FFE4F0081118110938E0100932F
:101A50008D0124E6C21AD108D0920501C09204017A
:101A60002091D7013091D801285E33403093010195
:101A700020930001B801012E000C880B990B0E94E5
:101A8000A6154B015C01C701800F911FBC01990F86
:101A9000880B990B0E94A6159B01AC01C501B401EE
:101AA0000E94FC146093D9017093DA018093DB01EA
:101AB0009093DC0161EB70E083EB90E00E94480AB8
:101AC000803138F590E0FC01EE0FFF1FE859FD4F23
:101AD0002DE931E031832083880F991FFC01E85BF9
:101AE000FD4F88E2808315C085EB882E81E0982E1B
:101AF00094E1A92EB12CC5010E947414F4018193C4
:101B00004F01FFEFAF1ABF0A28E1A216B10499F7FF
:101B10006DCF64EA70E088EA90E00E94480A803164
:101B200088F490E0FC01EE0FFF1FE859FD4F29E912
:101B300031E031832083880F991FFC01E85BFD4F62
:101B400088E080836AE970E08CE990E00E94480AAE
:101B5000803188F490E0FC01EE0FFF1FE859FD4F43
:101B600021EA31E031832083880F991FFC01E85B73
:101B7000FD4F88E4808362E970E084E990E00E9490
:101B8000480A803188F490E0FC01EE0FFF1FE8590D
:101B9000FD4F25EC31E031832083880F991FFC0134
:101BA000E85BFD4F88E080830E94700660E08DE076
:101BB0000E94400301E010E090E0292E90E0392ED1
:101BC0008091DD019091DE01892B09F4DAC180E179
:101BD0000E940302BC01990F880B990B0E94A61565
:101BE00020E030EC4FE754E40E94FC1420E030E0A9
:101BF00040EA50E40E945B162091D9013091DA014D
:101C00004091DB015091DC010E94FC146B017C01CE
:101C10006091D7017091D801072E000C880B990BA9
:101C20000E94A61520E030E04AE754E40E94FC142C
:101C30009B01AC01C701B6010E945B166B017C01E0
:101C40006093D3017093D4018093D5019093D60112
:101C500081E10E940302BC01990F880B990B0E943D
:101C6000A61520E030EC4FE754E40E94FC1420E07D
:101C700030E94CE955E40E945B164B015C01609130
:101C8000D1017091D201072E000C880B990B0E9494
:101C9000A6159B01AC01C501B4010E948A144B0139
:101CA0005C016091040170910501072E000C880B06
:101CB000990B0E94A6159B01AC01C501B4010E94BD
:101CC0008B142091CD013091CE014091CF015091E4
:101CD000D0010E94FC144B015C0120E030E0A9011E
:101CE0000E94F71487FD09C08092C9019092CA0131
:101CF000A092CB01B092CC0108C01092C901109201
:101D0000CA011092CB011092CC018090C901909031
:101D1000CA01A090CB01B090CC01A7019601C501EA
:101D2000B4010E945B160E946E156093C50170930A
:101D3000C6018093C7019093C8010E94D1034090CF
:101D4000C1015090C2016090C3017090C401730141
:101D50006201E4EFCE0EE1E0DE1EE11CF11CC616CE
:101D6000D706E806F90608F055C00E94D1036B01BA
:101D70007C01C418D508E608F708C092B901D092D2
:101D8000BA01E092BB01F092BC0120E030E04AE7EA
:101D900054E4C501B4010E945B162B013C01C7014C
:101DA000B6010E94A41520E03AEB4BE55AE40E94EC
:101DB000FC149B01AC01C301B2010E945B1620E040
:101DC00030E0A9010E948B149B01AC016093BD011E
:101DD0007093BE018093BF019093C0016091B501E3
:101DE0007091B6018091B7019091B8010E948B1457
:101DF0006093B5017093B6018093B7019093B801D9
:101E00000E94D1036093C1017093C2018093C3010A
:101E10009093C401E090B301F090B401F1E0EF16AB
:101E2000F10419F520E030E040E85FE3C501B401BA
:101E30000E9456161816CCF4F092B201E092B1014D
:101E40001092B0011092AF010E94D103DC01CB01CE
:101E50008856954CAF4FBF4F8093AB019093AC0128
:101E6000A093AD01B093AE0104C01092B2011092E4
:101E7000B1010E94D1036093A7017093A8018093E0
:101E8000A9019093AA0121E0E216F10481F52091C5
:101E9000B1013091B201232B51F52091AF01309166
:101EA000B001232B21F58090AB019090AC01A09064
:101EB000AD01B090AE0186169706A806B906BCF42F
:101EC0006091B5017091B6018091B7019091B80110
:101ED0000E946E157A836983BE016F5F7F4F84E134
:101EE00090E00E940A03F092B001E092AF0180916D
:101EF000B3019091B401019709F063C0E9E1F1E009
:101F00008491E5E0F1E0E490E1EFF0E0F490FF206F
:101F1000A1F081110E94DA01EF2DF0E0EE0FFF1F1A
:101F2000EE51FF4FA591B4918C91E82231E020E071
:101F300009F430E0832F922F02C080E090E090936C
:101F4000A6018093A5012091B1013091B201232B0C
:101F5000C1F5892BB1F51092B5011092B60110921E
:101F6000B7011092B8011A821982BE016F5F7F4FCC
:101F700084E190E00E940A031093B0010093AF0146
:101F800020C01092D3011092D4011092D50110926A
:101F9000D6011092C9011092CA011092CB01109281
:101FA000CC011092C5011092C6011092C701109287
:101FB000C8011092B5011092B6011092B7011092AB
:101FC000B80120E030E048EC52E46091D301709118
:101FD000D4018091D5019091D6010E945B160E9498
:101FE0006E156093A1017093A2018093A301909359
:101FF000A40120E030E040E251E46091C901709119
:10200000CA018091CB019091CC010E945B160E9485
:102010006E1560939D0170939E0180939F01909334
:10202000A0016091B5017091B6018091B7019091C6
:10203000B8010E946E156093990170939A01809384
:102040009B0190939C01E0919701F0919801EA30F7
:10205000F10521F0109296011092950180910201F4
:10206000909103018E179F0721F0F0930301E093F5
:102070000201EB30F10508F01FC2EC5CFF4F0C943D
:10208000DC1667EE72E086EF92E014C21A8A1982BB
:1020900061EE72E0CE0142960E942B141BA2409189
:1020A000C9015091CA016091CB017091CC0121E02E
:1020B00030E0CE0183960E94F004BE016D5D7F4F3B
:1020C000CE0142960E94FB166FED72E0CE01429661
:1020D0000E942B1469ED72E0CE0101960E942B1430
:1020E0001BA24091B5015091B6016091B70170916A
:1020F000B80120E030E0CE0183960E94F004BE01DA
:102100006D5D7F4FCE0101960E94FB1665ED72E07A
:10211000C1C11A8A19826BEC72E0CE0142960E940C
:102120002B141BA24091D3015091D4016091D50191
:102130007091D60122E030E0CE0183960E94F00437
:10214000BE016D5D7F4FCE0142960E94FB1669EC89
:1021500072E0CE0142960E942B146FEB72E0CE012A
:1021600001960E942B141BA26091C5017091C601BB
:102170008091C7019091C8010E94A615AB01BC01D6
:1021800020E030E0CE0183960E94F004BE016D5D38
:102190007F4FCE0101960E94FB166DEB72E07AC173
:1021A0001A8A19826CEA72E0CE0142960E942B14C0
:1021B0008091DD019091DE01892B31F46CE972E0B0
:1021C000CE0101960E942B148091DD019091DE01D9
:1021D000019731F460E972E0CE0101960E942B1460
:1021E0008091DD019091DE01029731F464E872E0A4
:1021F000CE0101960E942B148091DD019091DE01A9
:10220000039731F468E772E0CE0101960E942B1427
:102210008091DD019091DE01049731F46BE672E06C
:10222000CE0101960E942B148091DD019091DE0178
:10223000059731F46DE572E0CE0101960E942B14F2
:102240008091DD019091DE01069731F46FE472E038
:10225000CE0101960E942B148091DD019091DE0148
:10226000079731F461E472E0CE0101960E942B14CD
:102270008091DD019091DE01089731F464E372E012
:10228000CE0101960E942B148091DD019091DE0118
:10229000099731F466E272E0CE0101960E942B1498
:1022A0008091DD019091DE010A9731F468E172E0DE
:1022B000CE0101960E942B148091DD019091DE01E8
:1022C0000B9709F0EBC06AE072E0E4C01A8A198249
:1022D00069EF71E0CE0142960E942B148091930128
:1022E00090919401892B31F46AEE71E0CE01019650
:1022F0000E942B148091930190919401019731F4E5
:102300006CED71E0CE0101960E942B148091930137
:1023100090919401029731F46EEC71E0CE01019638
:102320000E942B148091930190919401039709F0DE
:10233000B5C06DEB71E0AEC01A8A198263EB71E033
:10234000CE0142960E942B141BA24091C9015091CC
:10235000CA016091CB017091CC0122E030E0CE0146
:1023600083960E94F004BE016D5D7F4FCE014296C0
:102370000E94FB1661EB71E0CE0142960E942B1485
:1023800063EA71E0CE0101960E942B141BA26091BA
:1023900091017091920164567109709305016093E7
:1023A000040135C01A8A198269E971E0CE014296AA
:1023B0000E942B141BA24091D3015091D401609133
:1023C000D5017091D60122E030E0CE0183960E94C3
:1023D000F004BE016D5D7F4FCE0142960E94FB1658
:1023E00067E971E0CE0142960E942B1469E871E022
:1023F000CE0101960E942B141BA26091D70170910F
:10240000D801685E73407093010160930001072E4C
:10241000000C880B990B0E94A615AB01BC0120E0B3
:1024200030E0CE0183960E94F004BE016D5D7F4FC7
:10243000CE0101960E94FB1631C01A8A19826DE7FF
:1024400071E0CE0142960E942B148091B3019091CD
:10245000B401892B31F46AE771E0CE0142960E9403
:102460002B148091B3019091B401019731F466E788
:1024700071E0CE0142960E942B1465E671E00AC01D
:102480001A8A198267E571E0CE0142960E942B14E8
:1024900067E471E0CE0101960E942B14BE016F5FCC
:1024A0007F4FCE0142960E940E0B06C068E271E09B
:1024B00087E391E00E94D80A83EE91E00E94C7046E
:1024C0000E94980A0E94700660E08091EF010E94CD
:1024D000700361E08091EF010E9440030E94AA0A0C
:1024E0000E94AA0A0E94D1036B017C01F4E6CF0E80
:1024F000D11CE11CF11CA12CB12C0E94D1036C1544
:102500007D058E059F0588F583EE91E00E944002CF
:102510001816190694F783EE91E00E9440021816EF
:10252000190614F0712C1AC083EE91E00E94570234
:10253000782E8091AF0287113DC180908A029090E1
:102540008B02A0908C02B0908D020E94D10386165F
:102550009706A806B90608F42DC1E4CF872D90E0B0
:10256000009709F03FC15C01C8CFC501803F9105CC
:1025700009F419C1009709F416C1803B910509F4CB
:10258000ACC04CF48037910509F447C080399105FF
:1025900009F4F9C008C1803D910509F456C0803E98
:1025A000910509F000C180919701909198018A30BE
:1025B000910509F4F8C08930910569F561E080E082
:1025C00090E00E943E036091B30181E090E00E94A0
:1025D0003E036091DD0182E090E00E943E03609145
:1025E000930183E090E00E943E036091910184E0BA
:1025F00090E00E943E0367ED71E08AE090E00E9467
:102600000A031A821982BE016F5F7F4F84E190E056
:102610000E940A03C3C0019613C080919701909154
:1026200098018336910521F4109298011092970138
:102630008091970190919801009709F4B4C0019797
:102640009093980180939701AEC0809197019091EB
:10265000980183309105C1F48091DD019091DE01F4
:102660008C3091052CF401969093DE018093DD016E
:102670008091DD019091DE010C9709F094C01092D9
:10268000DE011092DD018FC08430910509F449C04C
:102690008530910531F480919101909192010196DC
:1026A0005FC08630910531F48091D7019091D801B7
:1026B000019664C0079709F076C08091B3019091AC
:1026C000B401892B29F41093B4010093B3016BC0BA
:1026D0001092B4011092B30166C08091970190915D
:1026E000980183309105D1F48091DD019091DE0154
:1026F000892B31F48CE090E09093DE018093DD0132
:102700008091DD019091DE01181619060CF04BC086
:1027100001979093DE018093DD0145C084309105DF
:10272000B9F48091930190919401843091052CF437
:1027300001969093940180939301809193019091DD
:102740009401049781F510929401109293012BC08B
:102750008530910551F480919101909192010197FA
:1027600090939201809391011EC08630910509F0EB
:10277000A1CF8091D7019091D80101979093D80172
:102780008093D70110C0809197019091980108978C
:1027900051F460E080E090E00E943E030E94520B02
:1027A000E0E0F0E009952114310409F409CA0E941F
:1027B000000000CA0E94D103DC01CB0180579E4F6C
:1027C000AF4FBF4F80938A0290938B02A0938C02ED
:1027D000B0938D027092AF02F0EF7F12BFCE80EF08
:1027E00090E0C1CE803F910509F0C7CEDCCFE3EE8B
:1027F000F1E01382128288EE93E0A0E0B0E08483DF
:102800009583A683B78383E691E091838083AAEFC3
:10281000B1E08C918E7F8C93128E118E148E138E5C
:10282000168E158E12A211A210928A0210928B029D
:1028300010928C0210928D02109288021092070260
:1028400010920602109289028AE192E09093B502FA
:102850008093B4020895FB01DC010D900020E9F79C
:10286000119705900D920020E1F70895FC01059065
:102870000020E9F7809590958E0F9F1F0895BB2744
:102880004A3031F4992322F4BDE2909581959F4F0F
:102890000C944B14BB27FB015527AA27880F991FBF
:1028A000AA1FA41710F0A41B83955051B9F7A05D7F
:1028B000AA3308F0A95DA193009779F7B111B193FC
:1028C0001192CB010C946414DC01FC01672F71910F
:1028D0007723E1F7329704C07C916D937083629106
:1028E000AE17BF07C8F30895F999FECF92BD81BD19
:1028F000F89A992780B50895262FF999FECF1FBA27
:1029000092BD81BD20BD0FB6F894FA9AF99A0FBE18
:10291000019608955058BB27AA270E94A2140C9430
:102920001C160E940E1638F00E94151620F039F47D
:102930009F3F19F426F40C940B160EF4E095E7FB78
:102940000C940516E92F0E942D1658F3BA1762074A
:1029500073078407950720F079F4A6F50C944F16B9
:102960000EF4E0950B2EBA2FA02D0B01B9019001AA
:102970000C01CA01A0011124FF27591B99F0593FEE
:1029800050F4503E68F11A16F040A22F232F342F36
:102990004427585FF3CF469537952795A795F04084
:1029A0005395C9F77EF41F16BA0B620B730B840B99
:1029B000BAF09150A1F0FF0FBB1F661F771F881F51
:1029C000C2F70EC0BA0F621F731F841F48F48795A9
:1029D00077956795B795F7959E3F08F0B0CF93959B
:1029E000880F08F09927EE0F9795879508950E9414
:1029F000E11508F481E008950E9410150C941C164E
:102A00000E94151658F00E940E1640F029F45F3F00
:102A100029F00C94051651110C9450160C940B16B9
:102A20000E942D1668F39923B1F3552391F3951B5A
:102A3000550BBB27AA2762177307840738F09F5FDF
:102A40005F4F220F331F441FAA1FA9F335D00E2E4C
:102A50003AF0E0E832D091505040E695001CCAF7B9
:102A60002BD0FE2F29D0660F771F881FBB1F26177C
:102A700037074807AB07B0E809F0BB0B802DBF0153
:102A8000FF2793585F4F3AF09E3F510578F00C9422
:102A900005160C9450165F3FE4F3983ED4F38695E8
:102AA00077956795B795F7959F5FC9F7880F911D43
:102AB0009695879597F90895E1E0660F771F881F2F
:102AC000BB1F621773078407BA0720F0621B730BE2
:102AD000840BBA0BEE1F88F7E09508950E947515D8
:102AE0006894B1110C94501608950E94351688F020
:102AF0009F5798F0B92F9927B751B0F0E1F0660FC2
:102B0000771F881F991F1AF0BA95C9F714C0B13002
:102B100091F00E944F16B1E008950C944F16672F64
:102B2000782F8827B85F39F0B93FCCF38695779531
:102B30006795B395D9F73EF490958095709561951A
:102B40007F4F8F4F9F4F0895E89409C097FB3EF445
:102B500090958095709561957F4F8F4F9F4F9923EA
:102B6000A9F0F92F96E9BB279395F6958795779568
:102B70006795B795F111F8CFFAF4BB0F11F460FF28
:102B80001BC06F5F7F4F8F4F9F4F16C0882311F080
:102B900096E911C0772321F09EE8872F762F05C094
:102BA000662371F096E8862F70E060E02AF09A952F
:102BB000660F771F881FDAF7880F9695879597F924
:102BC0000895990F0008550FAA0BE0E8FEEF1616BE
:102BD0001706E807F907C0F012161306E407F50711
:102BE00098F0621B730B840B950B39F40A2661F085
:102BF000232B242B252B21F408950A2609F4A14028
:102C0000A6958FEF811D811D089597F99F6780E834
:102C100070E060E008959FEF80EC089500240A942E
:102C20001616170618060906089500240A941216A7
:102C30001306140605060895092E0394000C11F4DA
:102C4000882352F0BB0F40F4BF2B11F460FF04C087
:102C50006F5F7F4F8F4F9F4F089557FD9058440FE0
:102C6000551F59F05F3F71F04795880F97FB991FEB
:102C700061F09F3F79F087950895121613061406A8
:102C8000551FF2CF4695F1DF08C016161706180635
:102C9000991FF1CF86957105610508940895E89410
:102CA000BB2766277727CB0197F908950E94E11586
:102CB00008F48FEF08950E946E160C941C160E9463
:102CC0000E1638F00E94151620F0952311F00C9482
:102CD00005160C940B1611240C9450160E942D16F8
:102CE00070F3959FC1F3950F50E0551F629FF0015F
:102CF000729FBB27F00DB11D639FAA27F00DB11D78
:102D0000AA1F649F6627B00DA11D661F829F222700
:102D1000B00DA11D621F739FB00DA11D621F839F87
:102D2000A00D611D221F749F3327A00D611D231F5D
:102D3000849F600D211D822F762F6A2F11249F57AB
:102D400050409AF0F1F088234AF0EE0FFF1FBB1FAE
:102D5000661F771F881F91505040A9F79E3F51056D
:102D600080F00C9405160C9450165F3FE4F3983EE7
:102D7000D4F3869577956795B795F795E7959F5F17
:102D8000C1F7FE2B880F911D9695879597F90895A9
:102D900097FB072E16F4009407D077FD09D00E9408
:102DA000E21607FC05D03EF4909581959F4F08955B
:102DB000709561957F4F0895EE0FFF1F0590F49178
:102DC000E02D0994AA1BBB1B51E107C0AA1FBB1F22
:102DD000A617B70710F0A61BB70B881F991F5A95A7
:102DE000A9F780959095BC01CD01089581E090E010
:102DF000F8940C940617FB01DC010D900020E9F714
:102E0000119701900D920020E1F7089511E0C4E8B8
:102E1000D1E004C0FE010E94DC162196C538D1071E
:062E2000C9F7F894FFCF92
:102E260064000100640006E803D007E803D007F851
:102E36002A1027D007D007C409C409C409C409C485
:102E460009C409C409C409580258025802580200A4
:102E560000C842000039430000C842000084420016
:102E66000020420000A041CDCC544100002041008A
:102E7600007042000020429A99D5410000A041000E
:102E86000000007E02AF0179023F0240025702278E
:022E9600020038
:00000001FF
